080040032990100066522000000000006008333202509028620160484714RAMON                                             RICOTTI                                           Mitre                                             704   000000013122CERRITO (3122-1)                                  08agencia0074@gmail.com                             M00100016048471F                                                  03                    1962-11-0900                                                                                                                                                                     0000000001000000000000000000000000000000000000000000000000
080040033000100007810000000000000602422202509028620286658300MARTÍN                                            CAVALLO                                           Antártida Argentina                               82    000000023109VIALE (3109-2)                                    08martincavallo_76@hotmail.com                      M00100028665830F                                                  03                    1981-08-1100                                                                                                                                                                     0000000001000000000000000000000000000000000000000000000000
080040033000100082769000000000007135249202509028620188622365EDISON                                            TAVARES                                           urdinarrain                                       452   000000003200CONCORDIA (3200-0)                                08lodelucas@gmail.com                               M00100018862236F                                                  03                    1971-02-2100                                                                                                                                                                     0000000001000000000000000000000000000000000000000000000000
080040033000100042655000000000007135249202509028620129771152OSCAR MANUEL                                      ATENCIO                                           Bv San Martin                                     154   000000013158LUCAS GONZALEZ (3158-1)                           08agencia343@gmail.com                              M00100012977115F                                                  030         0         1957-08-1600                                                                                                                                                                     0000000001000000000000000000000000000000000000000000000000
080040033000100008870000000000000629484202509028620291211209SERGIO ALDO FERNANDO                              PROSS                                             Gorostiaga                                        1267  000000003100PARANA (3100-0)                                   08turcopross@hotmail.com                            M00100029121120F                                                  03          B         1981-11-0700                                                                                                                                                                     0000000001000000000000000000000000000000000000000000000000
080040033000100018612000000000000602422202509028620242453116JUAN FRANCISCO                                    BOGLIACINO                                        juana azurduy                                     81    000000002820GUALEGUAYCHU (2820-0)                             08agenciaoficial734@hotmail.com                     M00100024245311F                                                  03                    1975-02-2100                                                                                                                                                                     0000000001000000000000000000000000000000000000000000000000
080040032980100079978000000000000243245202509028620118913613RAUL CESAR                                        RUIZ                                              Perez Colman                                      208   000000003100PARANA (3100-0)                                   08raulruiz1955@gmail.com                            M00100011891361F                                                  03                    1955-08-0600                                                                                                                                                                     0000000001000000000000000000000000000000000000000000000000
080040032980100056489000000000000243245202509028620274260824OSVALDO ARIEL                                     MANSILLA                                          sarmiento                                         1     000000003151ANTELO (3151-0)                                   08GISEL-CORREA@HOTMAIL.COM                          M00100027426082F                                                  03                    1979-07-2300                                                                                                                                                                     0000000001000000000000000000000000000000000000000000000000
080040032980100003027000000000000243245202509028627163302131JUANA ISABEL                                      BUTUS                                             Juez Aguilar Torres                               1058  000000003100PARANA (3100-0)                                   08juanitabutus@hotmail.com                          F00100016330213F                                                  03                    1963-04-2100                                                                                                                                                                     0000000001000000000000000000000000000000000000000000000000
080040032980100087450000000000000216775202509028620281598202ALBERTO MIGUEL                                    GRIGOLATTO                                        los azmies                                        587   000000003206FEDERACIÓN (3206-0)                               08npiana@teco.com.ar                                M00100028159820F                                                  03                    1980-09-2900                                                                                                                                                                     0000000001000000000000000000000000000000000000000000000000
080040032980100085025000000000000216775202509028627317065065NANCY VERÓNICA                                    SANCHEZ                                           Pasaje Publico interno                            115   000000003127HERNANDARIAS (3127-0)                             08nancy.ns932@gmail.com                             F00100031706506F                                                  03                    1958-05-1800                                                                                                                                                                     0000000001000000000000000000000000000000000000000000000000
080040032980100014003000000000000243245202509028620432947115MATEO MARTIN                                      BARBERA                                           dr gutierrez                                      1460  000000013265VILLA ELISA (3265-1)                              08barberamateo18@gmail.com                          M00100043294711F                                                  03                    2001-03-0500                                                                                                                                                                     0000000001000000000000000000000000000000000000000000000000
080040032990100013108000000000000450876202509028620084192504DOMINGO FRANCISCO                                 BIZZOTTO                                          ARTIGAS                                           65    000000003280COLON (3280-0)                                    08tombola69sanjose@gmail.com                        M00100008419250F                                                  03                    1947-06-1500                                                                                                                                                                     0000000001000000000000000000000000000000000000000000000000
080040033000100042338000000000000602422202509028620147302976RUBEN                                             RONCAGLIA                                         Estrada                                           2935  000000003228CHAJARI (3228-0)                                  08agencia813chajari@gmail.com                       M00100014730297F                                                  03                    1950-09-0200                                                                                                                                                                     0000000001000000000000000000000000000000000000000000000000
080040032980100040654000000000000243245202509028620101977588EDGARDO ALFONSO                                   BREGANT                                           Cervantes                                         22    000000003100PARANA (3100-0)                                   08agencia333.eab@gmail.com                          M00100010197758F                                                  03                    1953-08-0900                                                                                                                                                                     0000000001000000000000000000000000000000000000000000000000
080040032980100053973000000000000216775202509028623121264749JORGE ELEODORO                                    VISOSA                                            isthilart y german abdala                         123   000000003200CONCORDIA (3200-0)                                08agencia0874@gmail.com                             M00100012126474F                                                  03                    1956-05-1300                                                                                                                                                                     0000000001000000000000000000000000000000000000000000000000
080040032990100061883000000000388448104202509028627302052668GREGORIA                                          LARES                                             suburbios                                         0     000000003153VICTORIA (3153-0)                                 08soledadlares263@gmail.com                         F00100030205266F                                                  03                    1983-08-3000                                                                                                                                                                     0000000001000000000000000000000000000000000000000000000000
080040032990100033854000000000000273219202509028627271572781MARIA LAURA                                       BARZOLA                                           Ameghino 647                                      647   000000003100PARANA (3100-0)                                   08mlbarzola53@gmail.com                             F00100027157278F                                                  03                    1979-04-2700                                                                                                                                                                     0000000001000000000000000000000000000000000000000000000000
080040032990100033850000000000000450876202509028627351288146MICAELA                                           MASCHIO                                           2 cuadras al este esc 18 s/n                      0     000000043201ESTANCIA GRANDE (3201-4)                          08agencia1117@gmail.com                             F00100035128814F                                                  03                    1990-05-2300                                                                                                                                                                     0000000001000000000000000000000000000000000000000000000000
080040032990100056157000000000388448104202509028627059478066MARIA DEL CARMEN                                  ZABALA                                            ventavoli                                         929   000000003240VILLAGUAY (3240-0)                                08rubensueldo40@gmail.com                           F00100005947806F                                                  03                    1948-10-0400                                                                                                                                                                     0000000001000000000000000000000000000000000000000000000000
080040032990100018903000000000006008333202509028620291345329GERMANEDUARDO                                     FETTOLINI                                         moreno 807                                        1     000000003150NOGOYA (3150-0)                                   08jorgesteimbrecher@gmail.com                       M00100029134532F                                                  03                    1981-12-2800                                                                                                                                                                     0000000001000000000000000000000000000000000000000000000000
080040032990100077557000000000006459209202509028627348051720ROCIO ALEJANDRINA                                 PERAFAN                                           Moulins                                           647   000000003200CONCORDIA (3200-0)                                08roperafan892@gmail.com                            F00100034805172F                                                  03                    1989-12-0100                                                                                                                                                                     0000000001000000000000000000000000000000000000000000000000
080040032990100015944000000000000273219202509028620238809062LUIS ALBERTO                                      SOLTERMANN                                        mitre                                             2543  000000003107SAN BENITO (3107-0)                               08luissoterman44@gmail.com                          M00100023880906F                                                  03                    1974-08-2300                                                                                                                                                                     0000000001000000000000000000000000000000000000000000000000
080130013170100004880000000000000162954202509028623324112804JOANA                                             FABRE                                             jordana                                           415   000000013260CONCEPCION DEL URUGUAY (3260-1)                   08agencia1287@gmail.com                             F00100032411280F                                                  03                    1986-11-1300                                                                                                                                                                     0000000001000000000000000000000000000000000000000000000000
080130013170100001755000000000000162954202509028620181044110FABIAN JOSE                                       MORGAN                                            Centenario                                        219   000000002840GUALEGUAY (2840-0)                                08fabianmorgann@hotmail.com                         M00100018104411F                                                  03                    1967-03-0700                                                                                                                                                                     0000000001000000000000000000000000000000000000000000000000
080040033000100082900000000000007135249202509028620379212078RAMIRO                                            BRITTES                                           brow                                              1456  000000003190LA PAZ (3190-0)                                   08agencisantarita1300@gmai.com                      M00100037921207F                                                  03                    1993-12-3000                                                                                                                                                                     0000000001000000000000000000000000000000000000000000000000
080040033000100129934000000000000629484202509028627385445569MARIA DE LOS ANGELES                              CENTURION                                         NECOCHEA                                          1140  000000003240VILLAGUAY (3240-0)                                08MERIAANGELES95@GMAIL.COM                          F00100038544556F                                                  03                    1995-06-0600                                                                                                                                                                     0000000001000000000000000000000000000000000000000000000000
080040033000100103430000000000000629484202509028620266107561FRANCISCO                                         BERNAL                                            Mitre                                             998   000000013260CONCEPCION DEL URUGUAY (3260-1)                   08berfrancisco@hotmail.com                          M00100026610756F                                                  03                    1978-07-0100                                                                                                                                                                     0000000001000000000000000000000000000000000000000000000000
080040033000100036702000000000000602422202509028620219125829JAVIER ALEJANDRO                                  LAZZANEO                                          Brigdier J Lopez                                  1048  000000003100PARANA (3100-0)                                   08agencia786@gmail.com                              M00100021912582F                                                  03                    1971-05-1100                                                                                                                                                                     0000000001000000000000000000000000000000000000000000000000
080040033000100012035000000000000602422202509028620240543320DIEGO GERMAN                                      ARRIOLA                                           Dr. Solari Sur                                    899   000000003200CONCORDIA (3200-0)                                08agencia1273.williman@gmail.com                    M00100024054332F                                                  03                    1975-01-0900                                                                                                                                                                     0000000001000000000000000000000000000000000000000000000000
080040032970100066284000000000019612695202509028627231310598RAQUEL OFELIA                                     MOIX                                              Carlos Figueroa                                   158   000000003183LOS CONQUISTADORES (3183-0)                       08germansguerzo@gmail.com                           F00100023131059F                                                  03                    1973-04-1800                                                                                                                                                                     0000000001000000000000000000000000000000000000000000000000
080040032980100052072000000000003792836202509028620258769628JUAN PABLO                                        AMESTOY                                           españa                                            240   000000003153VICTORIA (3153-0)                                 08amestoyjuanpablo2@gmail.com                       M00100025876962F                                                  03                    1977-04-2000                                                                                                                                                                     0000000001000000000000000000000000000000000000000000000000
080040032980100089659000000000003792836202509028620367755653BENIGNO LUIS ALBERTO                              VILCHES                                           Libertad                                          1467  000000003107SAN BENITO (3107-0)                               08majolinabarrera@gmail.com                         M00100036775565F                                                  03                    1992-06-0500                                                                                                                                                                     0000000001000000000000000000000000000000000000000000000000
080040032980100041492000000000000216775202509028620215958087JAVIER                                            QUESTA                                            estrada                                           961   000000003240VILLAGUAY (3240-0)                                08gabinsak@yahoo.com.ar                             M00100021595808F                                                  03                    1970-07-0500                                                                                                                                                                     0000000001000000000000000000000000000000000000000000000000
080040032980100000345000000000000216775202509028627233929056ANA DELIA                                         ADRIEL                                            URUGUAY                                           293   000000002854LARROQUE (2854-0)                                 08agencia0041larroque@gmail.com                     F00100023392905F                                                  03                    1973-06-1600                                                                                                                                                                     0000000001000000000000000000000000000000000000000000000000
080040032980100111334000000000000243245202509028627038071349TERESITA                                          TABORDA                                           san martin                                        1264  000000003100PARANA (3100-0)                                   08teretaborda@gmail.com                             F00100003807134F                                                  037         2         1939-09-1300                                                                                                                                                                     0000000001000000000000000000000000000000000000000000000000
080040032980100089627000000000003792836202509028623290246954DANIELA HAYDEE                                    OTAÑO                                             Rivadavia                                         833   000000003107SAN BENITO (3107-0)                               08majolinabarrera@gmail.com                         F00100029024695F                                                  03                    1981-08-2300                                                                                                                                                                     0000000001000000000000000000000000000000000000000000000000
080040032980100128168000000000000216775202509028620170442742SERGIO HORACIO                                    FURLAN                                            FLORIANO ZAPATA                                   2227  000000003100PARANA (3100-0)                                   08rodolfo.regner@gmail.com                          M00100017044274F                                                  03                    1964-06-1400                                                                                                                                                                     0000000001000000000000000000000000000000000000000000000000
080040032990100090183000000000000273219202509028627202902206DIANA ANGÉLICA                                    PELAEZ                                            Construcción                                      276   000000003153VICTORIA (3153-0)                                 08agencia0863victoria@gmail.com                     F00100020290220F                                                  03Casa      Casa      1968-06-2600                                                                                                                                                                     0000000001000000000000000000000000000000000000000000000000
080040032990100072998000000000000273219202509028620108525895ALBERTO                                           LEYVA                                             Alvarado                                          387   000000003185SAN JAIME DE LA FRONTERA (3185-0)                 08wpalauro@yahoo.com.ar                             M00100010852589F                                                  03                    1953-11-1900                                                                                                                                                                     0000000001000000000000000000000000000000000000000000000000
080040032990100001284000000000000273219202509028620161820297EDUARDO ABEL                                      CACERES                                           LOS ROBLES                                        1529  000000002820GUALEGUAYCHU (2820-0)                             08agencia485gchu@gmail.com                          M00100016182029F                                                  03                    1962-04-0100                                                                                                                                                                     0000000001000000000000000000000000000000000000000000000000
080040032990100067011000000000006008333202509028627251971779ZULEMA                                            GENTILE                                           Irigoyen                                          1276  000000003180FEDERAL (3180-0)                                  08zulema.agente@gmail.com                           F00100025197177F                                                  03                    1976-06-0700                                                                                                                                                                     0000000001000000000000000000000000000000000000000000000000
080040032990100001964000000000006008333202509028620201893780ALBERTO ANTONIO                                   CASTILLO                                          Hilario de la Quintana                            1314  000000003100PARANA (3100-0)                                   08drcastilloalberto@hotmail.com                     M00100020189378F                                                  03                    1968-09-2300                                                                                                                                                                     0000000001000000000000000000000000000000000000000000000000
080040032990100015724000000000000450876202509028627057888011MARÍA INES                                        MONTENEGRO                                        aldea asuncion                                    0     000000002841ALDEA ASUNCIÓN (2841-0)                           08agencia0062gualeguay@gmail.com                    F00100005788801F                                                  03                    1948-10-2000                                                                                                                                                                     0000000001000000000000000000000000000000000000000000000000
080040032990100061171000000000000450876202509028627236972882ROSANA NOEMI                                      BENITEZ                                           8 de junio1725                                    1725  000000013260CONCEPCION DEL URUGUAY (3260-1)                   08rosanabenitez1974@hotmail.com                     F00100023697288F                                                  030         0         1974-05-2100                                                                                                                                                                     0000000001000000000000000000000000000000000000000000000000
080040032990100000227000000000000450876202509028620392652605ALEJANDRO SEBASTIÁN                               BROESE                                            URQUIZA                                           896   000000002854LARROQUE (2854-0)                                 08agencia0041larroque@gmail.com                     M00100039265260F                                                  03000       000       1996-08-2400                                                                                                                                                                     0000000001000000000000000000000000000000000000000000000000
080040033000100130404000000000000629484202509028627251971779ZULEMA                                            GENTILE                                           Irigoyen                                          1276  000000003180FEDERAL (3180-0)                                  08zulema.agente@gmail.com                           F00100025197177F                                                  03                    1976-06-0700                                                                                                                                                                     0000000001000000000000000000000000000000000000000000000000
080130013170100007014000000000000162954202509028627131880109SUSANA BEATRIZ                                    DOMANICO                                          doctora ratto                                     464   000000013260CONCEPCION DEL URUGUAY (3260-1)                   08agencia1287@gmail.com                             F00100013188010F                                                  034         b         1959-01-1500                                                                                                                                                                     0000000001000000000000000000000000000000000000000000000000
080130013170100005125000000000000162954202509028627225140133SANDRA MARIELA                                    PEREZ                                             Luis gallioli.                                    74    000000003100PARANA (3100-0)                                   08sandramarielaperez577@gmail.com                   F00100022514013F                                                  031         2         2024-11-2300                                                                                                                                                                     0000000001000000000000000000000000000000000000000000000000
080130013170100010329000000000000162954202509028620304301717MARIANO HERNAN                                    MEDINA                                            sarmiento                                         1160  000000003190LA PAZ (3190-0)                                   08yesi_lapaz@hotmail.es                             F00100030430171F                                                  03                    1983-09-0700                                                                                                                                                                     0000000001000000000000000000000000000000000000000000000000
080040033000100037512000000000007135249202509028620246875236MARIO JAVIER                                      GONZALEZ                                          urquiza                                           2658  000000002820GUALEGUAYCHU (2820-0)                             08colmanmiriam@hotmail.com                          M00100024687523F                                                  03                    1975-06-1100                                                                                                                                                                     0000000001000000000000000000000000000000000000000000000000
080040033000100132172000000000179053248202509028627225140133SANDRA MARIELA                                    PEREZ                                             Luis gallioli.                                    74    000000003100PARANA (3100-0)                                   08sandramarielaperez577@gmail.com                   F00100022514013F                                                  031         2         2024-11-2300                                                                                                                                                                     0000000001000000000000000000000000000000000000000000000000
080040033000100037866000000000007135249202509028620133534750JORGE ALBERTO                                     GUZMAN                                            Ruta 35                                           0     000000013164DON CRISTÓBAL (3164-1)                            08guzmanjorge21959@gmail.com                        M00100013353475F                                                  03                    1959-06-2500                                                                                                                                                                     0000000001000000000000000000000000000000000000000000000000
080040033000100074725000000000007764733202509028620050978371JORGE ALBERTO                                     GOMEZ                                             Campirano y Dorrego                               0     000000003153VICTORIA (3153-0)                                 08agencia0270@gmail.com                             M00100005097837F                                                  030         0         1948-08-0500                                                                                                                                                                     0000000001000000000000000000000000000000000000000000000000
080040033000100106181000000000007135249202509028620185330207NESTOR ANIBAL                                     REY                                               EVA PERON                                         624   000000003218SAN SALVADOR (3218-0)                             08domingobernardoortiz@gmail.com                    M00100018533020F                                                  03                    1967-06-1200                                                                                                                                                                     0000000001000000000000000000000000000000000000000000000000
080040033000100048099000000000000602422202509028623285339529MAURO                                             ARELLANO                                          belgrano                                          1678  000000013260CONCEPCION DEL URUGUAY (3260-1)                   08fede_646@hotmail.com                              M00100028533952F                                                  030         0         1981-07-0700                                                                                                                                                                     0000000001000000000000000000000000000000000000000000000000
080040033000100039617000000000007135249202509028620109486109OSCAR                                             SHUTT                                             lucas sud                                         1     000000003240VILLAGUAY (3240-0)                                08gabinsak@yahoo.com.ar                             M00100010948610F                                                  03                    1953-12-2800                                                                                                                                                                     0000000001000000000000000000000000000000000000000000000000
080040033000100011066000000000000629484202509028627057302718MARTA                                             BEATRIZ                                           juan vucetich                                     741   000000003100PARANA (3100-0)                                   08luciapuntin5@gmail.com                            F00100005730271F                                                  03                    1948-02-2500                                                                                                                                                                     0000000001000000000000000000000000000000000000000000000000
080040033000100012873000000000000602422202509028627231297508VILMA NOEMI                                       FABREGA                                           tacuaras                                          0     000000003190LA PAZ (3190-0)                                   08fabregavilmanoemi@gmai.com                        F00100023129750F                                                  03                    1973-03-2200                                                                                                                                                                     0000000001000000000000000000000000000000000000000000000000
080040033000100125741000000000000629484202509028624058766042JUAN ORESTE                                       NOSIGLIA                                          Osinalde                                          53    000000023174ROSARIO DEL TALA (3174-2)                         08nosigliag@gmail.com                               F00100005876604F                                                  0300        00        1943-07-0400                                                                                                                                                                     0000000001000000000000000000000000000000000000000000000000
080040033000100020967000000000179053248202509028627052491490OLGA LIBORIA                                      REDING                                            Cepeda y Zaburlin                                 0     000000003240VILLAGUAY (3240-0)                                08diazanicetoramon@gmail.com                        F00100005249149F                                                  03                    1946-07-0100                                                                                                                                                                     0000000001000000000000000000000000000000000000000000000000
080040033000100011081000000000000602422202509028623178504584ILIANA INÉS                                       RAFFO                                             Pascual Palma                                     374   000000003100PARANA (3100-0)                                   08ilianaraffo@hotmail.com                           F00100017850458F                                                  03                    1966-09-3000                                                                                                                                                                     0000000001000000000000000000000000000000000000000000000000
080040032970100016887000000000000202296202509028627174803531LUCIA INES                                        GAUNA LUCIA INES                                  rio bermejo                                       245   000000023212LA CRIOLLA (3212-2)                               08agencia946@gmail.com                              F00100017480353F                                                  03                    1965-10-1800                                                                                                                                                                     0000000001000000000000000000000000000000000000000000000000
080040032980100070940000000000000216775202509038620281096525PABLO SEBASTIAN                                   BORDAGARAY                                        Urdinarrain                                       565   000000003200CONCORDIA (3200-0)                                08psbordagaray@gmail.com                            M00100028109652F                                                  03                    1980-04-3000                                                                                                                                                                     0000000001000000000000000000000000000000000000000000000000
080040032980100090001000000000000243245202509038620201899126VICTOR FABIAN                                     JACOB                                             De Fonte                                          1124  000000003100PARANA (3100-0)                                   08vfabian.jacob@gmail.com                           M00100020189912F                                                  03                    1969-03-1800                                                                                                                                                                     0000000001000000000000000000000000000000000000000000000000
080040032980100091823000000000000216775202509038627141077886GRACIELA                                          ZAMBON                                            Av. Larramendi y calle 1327                       0     000000003100PARANA (3100-0)                                   08agencia285@gmail.com                              F00100014107788F                                                  03                    1961-06-1100                                                                                                                                                                     0000000001000000000000000000000000000000000000000000000000
080040032980100077767000000000000243245202509038627206688802GLORIA EMMA                                       AMARILLO                                          1° sección quinta calle                           20    000000002840GUALEGUAY (2840-0)                                08sergiojeda5856@gmail.com                          F00100020668880F                                                  03                    1969-04-0500                                                                                                                                                                     0000000001000000000000000000000000000000000000000000000000
080040032980100045577000000000004009611202509038627411194200CAMILA AGUSTINA                                   BALDESSARI                                        inmaculada                                        715   000000003228CHAJARI (3228-0)                                  08camibal98@gmail.com                               F00100041119420F                                                  03                    1998-07-2000                                                                                                                                                                     0000000001000000000000000000000000000000000000000000000000
080040032980100002301000000000000243245202509038620306433513SILVIO                                            MERIANO                                           comb. de malvinas                                 483   000000013272ESTACION HERRERA (3272-1)                         08silmeriano@hotmail.com                            M00100030643351F                                                  030         0         1984-07-3100                                                                                                                                                                     0000000001000000000000000000000000000000000000000000000000
080040032980100032074000000000000243245202509028620231873393MARIO ALEJANDRO                                   BUXMAN                                            25 de mayo                                        1429  000000023109VIALE (3109-2)                                    08solesanabria@gmail.com                            M00100023187339F                                                  03                    1973-02-2500                                                                                                                                                                     0000000001000000000000000000000000000000000000000000000000
080040032980100123166000000000000216775202509038627398382264DELFINA                                           VERGARA                                           COLON                                             680   000000003150NOGOYA (3150-0)                                   08delvergaraamu@hotmail.com                         F00100039838226F                                                  03                    1996-10-1100                                                                                                                                                                     0000000001000000000000000000000000000000000000000000000000
080040032980100045596000000000000216775202509038627411194200CAMILA AGUSTINA                                   BALDESSARI                                        inmaculada                                        715   000000003228CHAJARI (3228-0)                                  08camibal98@gmail.com                               F00100041119420F                                                  03                    1998-07-2000                                                                                                                                                                     0000000001000000000000000000000000000000000000000000000000
080040032980100093779000000000000243245202509028620147925868ROSENDO                                           SOLIER                                            Derqui                                            808   000000003117SEGUI (3117-0)                                    08rosendosolier63@gmail.com                         M00100014792586F                                                  03                    1963-11-2000                                                                                                                                                                     0000000001000000000000000000000000000000000000000000000000
080040032980100083140000000000000216775202509038627398382264DELFINA                                           VERGARA                                           COLON                                             680   000000003150NOGOYA (3150-0)                                   08delvergaraamu@hotmail.com                         F00100039838226F                                                  03                    1996-10-1100                                                                                                                                                                     0000000001000000000000000000000000000000000000000000000000
080040032980100091196000000000000216775202509038620162352130MARIO ARTURO                                      PETELIN                                           bartolome mitre                                   656   000000003212LOS CHARRUAS (3212-0)                             08miagenciaoficial1347@gmail.com                    M00100016235213F                                                  03                    1963-04-0500                                                                                                                                                                     0000000001000000000000000000000000000000000000000000000000
080040032990100083142000000000000273219202509038627270313154GRACIELA LILIANA                                  SUCARRAT                                          Montevideo                                        464   000000003100PARANA (3100-0)                                   08sucarratliliana@gmail.com                         F00100027031315F                                                  03                    1979-04-2700                                                                                                                                                                     0000000001000000000000000000000000000000000000000000000000
080040032990100081229000000000000450876202509028620203224401JORGE GUSTAVO                                     MIÑO                                              Lavalle                                           210   000000003180FEDERAL (3180-0)                                  08agencia1278@gmail.com                             M00100020322440F                                                  03                    1968-09-0800                                                                                                                                                                     0000000001000000000000000000000000000000000000000000000000
080040032990100083575000000000006008333202509028620124282382RODOLFO EMILIO                                    BORNATICI                                         2 de abril                                        1749  000000002820GUALEGUAYCHU (2820-0)                             08rodolfoborna@gmail.com                            M00100012428238F                                                  03                    1958-10-1400                                                                                                                                                                     0000000001000000000000000000000000000000000000000000000000
080040032990100086725000000000000273219202509038620251261734MIGUEL ALBERTO                                    SANTINI                                           Chacabuco                                         1469  000000003190LA PAZ (3190-0)                                   08silversantini@hotmail.com                         M00100025126173F                                                  03                    1976-06-2000                                                                                                                                                                     0000000001000000000000000000000000000000000000000000000000
080040032990100090829000000000000273219202509028620170592191SERGIO DARIO                                      BLANCO                                            Los Talas                                         1081  000000003100PARANA (3100-0)                                   08blaser309@hotmail.com                             M00100017059219F                                                  03                    1965-01-2500                                                                                                                                                                     0000000001000000000000000000000000000000000000000000000000
080040032990100037340000000000000450876202509038627242096571DANIELA  ISABEL                                   TARABINI                                          Centenario de la Colonia                          3493  000000023283SAN JOSE (3283-2)                                 08taralu1912@gmail.com                              F00100024209657F                                                  03                    1974-11-2400                                                                                                                                                                     0000000001000000000000000000000000000000000000000000000000
080040032990100024407000000000000273219202509028627149119413DORA MARIANA                                      FOLLONIER                                         17 de Agosto                                      379   000000003260VILLA SAN JUSTO (3260-0)                          08agencia1165@gmail.com                             F00100014911941F                                                  03                    1963-07-1100                                                                                                                                                                     0000000001000000000000000000000000000000000000000000000000
080040032990100061430000000000000273219202509028627172781751MIRTA                                             DEGANUTTI                                         diaz velez                                        843   000000003100PARANA (3100-0)                                   08agencia767deganuttimirta@gmail.com                F00100017278175F                                                  03                    1965-02-1700                                                                                                                                                                     0000000001000000000000000000000000000000000000000000000000
080040032990100001925000000000000273219202509028627112882397TERESA MONICA                                     MIGLIACCIO                                        Uncal                                             868   000000013260CONCEPCION DEL URUGUAY (3260-1)                   08agencia826@gmail.com                              F00100011288239F                                                  03                    1954-07-2200                                                                                                                                                                     0000000001000000000000000000000000000000000000000000000000
080040032990100022848000000000388448104202509038627348106886PATRICIA ALEJANDRA                                MUÑOZ                                             10 De Julio                                       687   000000003164GENERAL RAMIREZ (3164-0)                          08lapatry330@gmail.com                              F00100034810688F                                                  03                    1990-03-0200                                                                                                                                                                     0000000001000000000000000000000000000000000000000000000000
080040032990100002689000000000006008333202509038627137742018SUSANA GRACIELA                                   QUIROZ                                            FRANCISCO RAMIREZ                                 110   000000032826URDINARRAIN (2826-3)                              08sq_57@hotmail.com                                 F00100013774201F                                                  03                    1957-10-2000                                                                                                                                                                     0000000001000000000000000000000000000000000000000000000000
080040032990100020784000000000000273219202509038627236972882ROSANA NOEMI                                      BENITEZ                                           8 de junio1725                                    1725  000000013260CONCEPCION DEL URUGUAY (3260-1)                   08rosanabenitez1974@hotmail.com                     F00100023697288F                                                  030         0         1974-05-2100                                                                                                                                                                     0000000001000000000000000000000000000000000000000000000000
080040032990100086984000000000006008333202509028620307499240DIEGO MARTIN                                      RANDAZZO                                          triunvirato                                       746   000000003164GENERAL RAMIREZ (3164-0)                          08randazzodiego7@gmail.com                          M00100030749924F                                                  03                    1984-06-0200                                                                                                                                                                     0000000001000000000000000000000000000000000000000000000000
080040032990100003829000000000000273219202509038620324059521GASTON EMANUEL                                    BALCAR                                            Av ramirez                                        3318  000000003100PARANA (3100-0)                                   08gastonbalcar.2015@gmail.com                       M00100032405952F                                                  03                    1986-06-1400                                                                                                                                                                     0000000001000000000000000000000000000000000000000000000000
080040033000100034443000000000007135249202509038627143075104EMILIO TERESITA                                   VIANNA                                            Fragata libertad y san martin                     0     000000003206FEDERACIÓN (3206-0)                               08agencia708@gmail.com                              F00100014307510F                                                  03                    1961-03-3100                                                                                                                                                                     0000000001000000000000000000000000000000000000000000000000
080040033000100122006000000000000629484202509038620124266727ADRIAN FLORENTINO                                 PEICHOTO                                          SAN MARTIN                                        536   000000003200CONCORDIA (3200-0)                                08agencia290concordia@gmail.com                     M00100012426672F                                                  03                    1958-12-0800                                                                                                                                                                     0000000001000000000000000000000000000000000000000000000000
080040033000100051595000000000000602422202509038620216405553ARMANDO MARCELO                                   BACHMANN                                          Rivadavia                                         219   000000003187SAN JOSÉ DE FELICIANO (3187-0)                    08agencia1080@hotmail.com                           M00100021640555F                                                  03No        Casa      2024-02-1900                                                                                                                                                                     0000000001000000000000000000000000000000000000000000000000
080040033000100107507000000000000629484202509038627242098310ADRIANA                                           GOMEZ                                             Emilio gouchon                                    1301  000000003280COLON (3280-0)                                    08adriana1975gomez@hotmail.com                      F00100024209831F                                                  03                    1975-04-1100                                                                                                                                                                     0000000001000000000000000000000000000000000000000000000000
080040033000100083497000000000000629484202509038620312332605VICTOR                                            BAZAN                                             Larramendi                                        2504  000000003100PARANA (3100-0)                                   08manubazanpeluqueria@gmail.com                     M00100031233260F                                                  03                    1985-05-1300                                                                                                                                                                     0000000001000000000000000000000000000000000000000000000000
080040033000100106643000000000000602422202509028620206705664GABRIEL                                           JAIME                                             Uruguay                                           283   000000003150NOGOYA (3150-0)                                   08gabrieljaime2019@gmail.com                        M00100020670566F                                                  03                    1969-04-1400                                                                                                                                                                     0000000001000000000000000000000000000000000000000000000000
080040033000100103728000000000000602422202509038620255886062LUIS                                              RUIZ                                              MATHEU y garay                                    0     000000003153VICTORIA (3153-0)                                 08AGENCIA0090@GMAIL.COM                             M00100025588606F                                                  030         0         1977-01-1000                                                                                                                                                                     0000000001000000000000000000000000000000000000000000000000
080040033000100033237000000000007135249202509038620282846331ROBERTO CARLOS                                    RADER                                             GUARUMBA                                          3105  000000003228CHAJARI (3228-0)                                  08Agencia1275chajari@gmail.com                      M00100028284633F                                                  03                    1980-09-0800                                                                                                                                                                     0000000001000000000000000000000000000000000000000000000000
080130013170100009619000000000000162954202509028623058857599OSCAR ANIBAL                                      NICOLINI CHORT                                    San Martin                                        533   000000023116CRESPO (3116-2)                                   08gualeguay47@hotmail.com                           M00100005885759F                                                  03                    1947-10-1400                                                                                                                                                                     0000000001000000000000000000000000000000000000000000000000
080130013170100001477000000000000162954202509038627325125670JANET IVANA                                       AGUILAR                                           Frente Esc.                                       22    000000023203CALABACILLA (3203-2)                              08agencia722calabacilla@gmail.com                   F00100032512567F                                                  03                    1987-04-1500                                                                                                                                                                     0000000001000000000000000000000000000000000000000000000000
080130013170100007027000000000000162954202509038627362093096CARLA                                             BOHL                                              Roffo                                             1111  000000002820GUALEGUAYCHU (2820-0)                             08bohlcarla40@gmail.com                             F00100036209309F                                                  03                    1992-11-1000                                                                                                                                                                     0000000001000000000000000000000000000000000000000000000000
080130013170100000765000000000000162954202509038620104561218JUAN FRANCISCO                                    GRECCO                                            25 de Mayo                                        982   000000002820GUALEGUAYCHU (2820-0)                             08agencia166@hotmail.com                            M00100010456121F                                                  03                    1952-06-2400                                                                                                                                                                     0000000001000000000000000000000000000000000000000000000000
080040033000100085999000000000000602422202509038627060469356MARTA ESTER                                       BARSOTTI                                          Despertar del Obrero y Lopez Jordan               2896  000000013260CONCEPCION DEL URUGUAY (3260-1)                   08martaesterbarsotti1949@gmail.com                  F00100006046935F                                                  03                    1949-09-0500                                                                                                                                                                     0000000001000000000000000000000000000000000000000000000000
080040033000100067279000000000179053248202509028627239739593NANCY ELIZABETH                                   RAMOS                                             SARMIENTO                                         455   000000013142BOVRIL (3142-1)                                   08nancyvoley2@gmail.com                             F00100023973959F                                                  03                    1974-05-3100                                                                                                                                                                     0000000001000000000000000000000000000000000000000000000000
080040033000100087367000000000007737671202509038620143674291JORGE EDUARDO                                     GAITAN                                            Los Yaros                                         1443  000000003100PARANA (3100-0)                                   08gaitanjorgeeduardo1@gemail.com                    M00100014367429F                                                  03                    1962-05-0100                                                                                                                                                                     0000000001000000000000000000000000000000000000000000000000
080040033000100005712000000000000629484202509028627229305773NORMA BEATRIZ                                     VIERA                                             San lorenzo este                                  1152  000000003200CONCORDIA (3200-0)                                08elchinito1126@gmail.com                           F00100022930577F                                                  03                    1972-10-0100                                                                                                                                                                     0000000001000000000000000000000000000000000000000000000000
080040033000100006964000000000000629484202509038627062126367ROSA ELBA                                         VEGA                                              luis palma                                        2561  000000003100PARANA (3100-0)                                   08pochi_me@hotmail.com                              F00100006212636F                                                  03                    1950-03-2000                                                                                                                                                                     0000000001000000000000000000000000000000000000000000000000
080040033000100027861000000000000629484202509028627255464766ROMINA PAOLA                                      HEINRICH                                          salta                                             532   000000003100PARANA (3100-0)                                   08agencia0386@gmail.com                             F00100025546476F                                                  03                    1976-12-0500                                                                                                                                                                     0000000001000000000000000000000000000000000000000000000000
080040033000100125476000000000007135249202509028627379219174MARIANELA ROMINA                                  LOPEZ                                             Pacto unión nacional                              815   000000003100PARANA (3100-0)                                   081000monos@gmail.com                               F00100037921917F                                                  03                    1993-10-2800                                                                                                                                                                     0000000001000000000000000000000000000000000000000000000000
080040033000100025673000000000007135249202509028620228811840JOSE GABRIEL RENE                                 FARACHE                                           santos vega                                       57    000000003228CHAJARI (3228-0)                                  08gabrielfarache72@gmail.com                        M00100022881184F                                                  03                    1972-09-3000                                                                                                                                                                     0000000001000000000000000000000000000000000000000000000000
080040033000100045629000000000000602422202509038620950908263JADE SENOIR                                       CORREA CORREA                                     2 DE ABRIL                                        1798  000000000000CONCORDIA                                         23penialbacarlos@gmail.com                          F00500095090826F                                                  03                    2002-10-1800                                                                                                                                                                     0000000001000000000000000000000000000000000000000000000000
080040033000100007599000000000000602422202509028620217363145MARCELO RUBEN                                     LEMOS                                             MANZANA C CASA                                    7     000000013260CONCEPCION DEL URUGUAY (3260-1)                   08agencialilian1327@gmail.com                       M00100021736314F                                                  03                    1971-04-1800                                                                                                                                                                     0000000001000000000000000000000000000000000000000000000000
080040033000100059780000000000007135249202509038620378387044MARCOS EMANUEL                                    CAMPOS                                            San Martin                                        875   000000023116CRESPO (3116-2)                                   08marcoscampos93@gmail.com                          M00100037838704F                                                  03                    1993-11-1600                                                                                                                                                                     0000000001000000000000000000000000000000000000000000000000
080040033000100091954000000000000602422202509028620222673837JOSE CARLOS                                       LICATA                                            Centenario                                        1085  000000003150NOGOYA (3150-0)                                   08agencia106elgolpe@gmail.com                       M00120222673837F                                                  03                    1972-03-2500                                                                                                                                                                     0000000001000000000000000000000000000000000000000000000000
080040033000100041996000000000007135249202509038624333127500PABLO EDUARDO                                     FERNANDEZ                                         CORTADA AIRALDI Y CARLOS GARDEL                   0     000000003105DIAMANTE (3105-0)                                 08fernadezpablo3489@hotmail.com                     M00100033312750F                                                  03                    1987-10-2600                                                                                                                                                                     0000000001000000000000000000000000000000000000000000000000
080040033000100086416000000000000629484202509038627428281573MARIANA                                           VOTTOLA MEYTRE                                    Santa Maria de oro                                648   000000013260CONCEPCION DEL URUGUAY (3260-1)                   08mariana.vittola1@gmail.com                        F00100042828157F                                                  03                    1996-02-0900                                                                                                                                                                     0000000001000000000000000000000000000000000000000000000000
080040033000100035762000000000007135249202509038620184245176ANTONIO MARIA                                     RAMÍREZ                                           San Martín                                        735   000000003272VILLA MANTERO (3272-0)                            08fr5044297@gmail.com                               M00100018424517F                                                  03                    1967-06-1300                                                                                                                                                                     0000000001000000000000000000000000000000000000000000000000
080040033000100006207000000000000602422202509038620271368403NESTOR OSCAR                                      MATTIASSI                                         las hortensias                                    1585  000000003206FEDERACIÓN (3206-0)                               08nestormattiassi@gmail.com                         M00100027136840F                                                  03                    1979-03-3100                                                                                                                                                                     0000000001000000000000000000000000000000000000000000000000
080040033000100066599000000000000629484202509038627017983712SIXTA                                             PESOA                                             URQUIZA                                           830   000000023174ROSARIO DEL TALA (3174-2)                         08sandrogomes4@hotmail.com                          F00100001798371F                                                  03                    1939-04-0600                                                                                                                                                                     0000000001000000000000000000000000000000000000000000000000
080040033000100076170000000000000629484202509028627163502327ESTELA ANA                                        BERNHARDT                                         Santa Fe                                          25    000000003100PARANA (3100-0)                                   08nancybetiananetto902@gmail.com                    F00100016350232F                                                  03                    1963-11-1500                                                                                                                                                                     0000000001000000000000000000000000000000000000000000000000
080040033000100067869000000000000629484202509038620203766484MARIO                                             ALBERTO                                           CENTENARIO                                        764   000000003150NOGOYA (3150-0)                                   08AGENCIA0090@GMAIL.COM                             M00100020376648F                                                  030         0         1968-07-1400                                                                                                                                                                     0000000001000000000000000000000000000000000000000000000000
080040033000100113472000000000000629484202509028627164062606OLGA ISABEL                                       NUÑEZ                                             Av. Castro                                        336   000000003200CONCORDIA (3200-0)                                08elchinito1126@gmail.com                           F00100016406269F                                                  03                    1963-01-3000                                                                                                                                                                     0000000001000000000000000000000000000000000000000000000000
080040033000100012026000000000000602422202509038627219705587MARIANA ELENA                                     GOMEZ                                             27 de junio                                       2333  000000002820GUALEGUAYCHU (2820-0)                             08mafa2795@hotmail.com                              F00100021970558F                                                  03                    1971-02-1600                                                                                                                                                                     0000000001000000000000000000000000000000000000000000000000
080130013170100008802000000000021667397202509028623058857599OSCAR ANIBAL                                      NICOLINI CHORT                                    San Martin                                        533   000000023116CRESPO (3116-2)                                   08gualeguay47@hotmail.com                           M00100005885759F                                                  03                    1947-10-1400                                                                                                                                                                     0000000001000000000000000000000000000000000000000000000000
080130013170100008720000000000000162954202509028623058857599OSCAR ANIBAL                                      NICOLINI CHORT                                    San Martin                                        533   000000023116CRESPO (3116-2)                                   08gualeguay47@hotmail.com                           M00100005885759F                                                  03                    1947-10-1400                                                                                                                                                                     0000000001000000000000000000000000000000000000000000000000
080130013170100008943000000000000162954202509028623058857599OSCAR ANIBAL                                      NICOLINI CHORT                                    San Martin                                        533   000000023116CRESPO (3116-2)                                   08gualeguay47@hotmail.com                           M00100005885759F                                                  03                    1947-10-1400                                                                                                                                                                     0000000001000000000000000000000000000000000000000000000000
080040033000100076605000000000000602422202509038620227372231DIEGO GASTON                                      PONCE                                             AYACUCHO                                          523   000000003100PARANA (3100-0)                                   08agencia0214@gmail.com                             M00100022737223F                                                  03                    1972-07-1600                                                                                                                                                                     0000000001000000000000000000000000000000000000000000000000
080040032970100070523000000000000202296202509048620208949579JOSE CARLOS                                       VILLAGRQ                                          Dean fines                                        1988  000000003100PARANA (3100-0)                                   08casandraserena@hotmail.com                        M00100020894957F                                                  03                    1969-12-0200                                                                                                                                                                     0000000001000000000000000000000000000000000000000000000000
080040032970100050818000000000000778922202509048620260806530JOSE MARIA                                        LUNA                                              Sarmiento                                         1010  000000003134HASENKAMP (3134-0)                                08joseluna26@yahoo.comar                            M00100026080653F                                                  03                    1977-07-2100                                                                                                                                                                     0000000001000000000000000000000000000000000000000000000000
080040032970100024766000000000000778922202509048620401654330WILLIAM                                           SPOLIDORI                                         Santa Fe                                          467   000000003156HERNANDEZ (3156-0)                                08williamaspolidori@gmail.com                       M00100040165433F                                                  03                    1998-09-2100                                                                                                                                                                     0000000001000000000000000000000000000000000000000000000000
080040032970100073439000000000000778922202509048620310225194LUCAS ANTONIO                                     MILLER                                            10 de julio                                       0     000000003164GENERAL RAMIREZ (3164-0)                          08lucasmiller01@gmal.com                            M00100031022519F                                                  03                    1984-06-2100                                                                                                                                                                     0000000001000000000000000000000000000000000000000000000000
080040032970100021777000000000000202296202509038620145939772HECTOR                                            CRISEL                                            San martin                                        120   000000023201PUERTO YERUA (3201-2)                             08hector45@gmail.com                                M00100014593977F                                                  03                    1962-01-1400                                                                                                                                                                     0000000001000000000000000000000000000000000000000000000000
080040032980100098261000000000003792836202509058627366951607KAREN LUCIANA                                     MENDOZA                                           doctor florenza                                   1663  000000003200CONCORDIA (3200-0)                                08km140449@gmail.com                                F00100036695160F                                                  03                    1992-06-3000                                                                                                                                                                     0000000001000000000000000000000000000000000000000000000000
080040032980100131257000000000000243245202509058620182249123MIGUEL                                            SILVA                                             Mitre                                             360   000000013122CERRITO (3122-1)                                  08Agencia0074@gmail.com                             M00100018224912F                                                  03                    1967-06-2600                                                                                                                                                                     0000000001000000000000000000000000000000000000000000000000
080040032980100039407000000000003792836202509048627265617250ETHEL ALICIA                                      NUÑEZ                                             La cautiva                                        752   000000003100PARANA (3100-0)                                   08miriam04n@gmail.com                               F00100026561725F                                                  03                    1978-05-0900                                                                                                                                                                     0000000001000000000000000000000000000000000000000000000000
080040032980100097421000000000000243245202509038627307799834NATALIA VALERIA                                   QUIÑONEZ                                          Los Conquistadores                                123   000000003206FEDERACIÓN (3206-0)                               08Nataliaqui89@gmail.com                            F00100030779983F                                                  03                    1984-09-2500                                                                                                                                                                     0000000001000000000000000000000000000000000000000000000000
080040032980100093821000000000004009611202509038623382621344MARÍA LUJAN                                       BIASIZO                                           Avenida alberdi                                   32    000000023212LA CRIOLLA (3212-2)                               08biasizomlujan@outlook.com                         F00100038262134F                                                  03          Conco     1994-07-2400                                                                                                                                                                     0000000001000000000000000000000000000000000000000000000000
080040032980100055660000000000000243245202509038620240856442ARIEL ANGEL MANUEL                                RUEDA                                             lopez jordan                                      1     000000003144SAUCE DE LUNA (3144-0)                            08ruedaariel60@gmail.com                            M00100024085644F                                                  031         1         1974-09-0900                                                                                                                                                                     0000000001000000000000000000000000000000000000000000000000
080040032980100022071000000000003792836202509048620216676182GUSTAVO JAVIER                                    PERCARA                                           Sarmiento                                         2615  000000003228CHAJARI (3228-0)                                  08gustavo@maderaspercara.com.ar                     M00100021667618F                                                  03                    1970-09-1500                                                                                                                                                                     0000000001000000000000000000000000000000000000000000000000
080040032980100024353000000000053365627202509048620131887338BRIAN ALBERTO                                     MAXIMO                                            Smith                                             743   000000013260CONCEPCION DEL URUGUAY (3260-1)                   08betoservis@hotmail.com                            M00100013188733F                                                  03                    1957-09-2500                                                                                                                                                                     0000000001000000000000000000000000000000000000000000000000
080040032980100076395000000000000216775202509058620302940992MARTIN ABEL                                       MONJO                                             Piaggio                                           174   000000003153VICTORIA (3153-0)                                 08martin.a.monjo@gmail.com                          M00100030294099F                                                  03                    1983-11-0400                                                                                                                                                                     0000000001000000000000000000000000000000000000000000000000
080040032980100117965000000000000216775202509058620130693637JUAN ALEJANDRO                                    REBOZZIO                                          CONCORDIA                                         748   000000003240VILLAGUAY (3240-0)                                08eri_12_276@hotmail.com                            M00100013069363F                                                  030         0         1957-07-1800                                                                                                                                                                     0000000001000000000000000000000000000000000000000000000000
080040032980100079248000000000000216775202509038623121879204ESTELA                                            LOVATTO                                           las magnolias                                     656   000000003206FEDERACIÓN (3206-0)                               08stellamlovatto@gmail.com                          F00100012187920F                                                  03                    1958-03-1400                                                                                                                                                                     0000000001000000000000000000000000000000000000000000000000
080040032980100126165000000000004009611202509068623260485849CLAUDIO FERNANDO                                  SIGOT                                             Piaggio                                           8     000000003153VICTORIA (3153-0)                                 08sigotclaudio2@gmail.com.ar                        M00100026048584F                                                  03                    1977-10-1800                                                                                                                                                                     0000000001000000000000000000000000000000000000000000000000
080040032980100127264000000000000243245202509038620379212221MARIO                                             VALENZUELA                                        Siebo                                             2250  000000003190LA PAZ (3190-0)                                   08agencia843lapaz@gmail.com                         M00100037921222F                                                  03                    1993-09-1000                                                                                                                                                                     0000000001000000000000000000000000000000000000000000000000
080040032980100109198000000000003792836202509048627207242018MARTA ELENA                                       VANERIO                                           Centenario                                        725   000000023283SAN JOSE (3283-2)                                 08martaelenavaneria@gmail.com                       F00100020724201F                                                  03          Colon     1969-10-0300                                                                                                                                                                     0000000001000000000000000000000000000000000000000000000000
080040032980100064765000000000004009611202509058627135865406JULIA ELVIRA                                      SALCEDO                                           Guemes y sto Cabral                               0     000000003153VICTORIA (3153-0)                                 08agencia0863victoria@gmail.com                     F00100013586540F                                                  0300        Casa      1959-12-0400                                                                                                                                                                     0000000001000000000000000000000000000000000000000000000000
080040032980100053410000000000000243245202509038620101977588EDGARDO ALFONSO                                   BREGANT                                           Cervantes                                         22    000000003100PARANA (3100-0)                                   08agencia333.eab@gmail.com                          M00100010197758F                                                  03                    1953-08-0900                                                                                                                                                                     0000000001000000000000000000000000000000000000000000000000
080040032980100091092000000000000243245202509038620281104277LUCIANO ARIEL                                     ORTIZZA                                           san martin                                        196   000000003200CONCORDIA (3200-0)                                08matuacosta@hotmail.com                            M00100028110427F                                                  03                    1981-01-3000                                                                                                                                                                     0000000001000000000000000000000000000000000000000000000000
080040032980100039658000000000000216775202509058623123099214MABEL LILIANA                                     PUSSINERI                                         los aromos                                        100   000000003100PARANA (3100-0)                                   08agencia1231@gmail.com                             M00100012309921F                                                  03                    1957-05-0700                                                                                                                                                                     0000000001000000000000000000000000000000000000000000000000
080040032980100065819000000000000243245202509058627437548280SHEILA ALEXANDRA                                  LÓPEZ                                             Virgen de Fátima y general medina                 2500  000000003200CONCORDIA (3200-0)                                08sheilaalexandralopez345@gmail.com                 F00100043754828F                                                  03                    2001-10-2400                                                                                                                                                                     0000000001000000000000000000000000000000000000000000000000
080130013160100009041000000000000130312202509058620440741585BRIAN                                             TONIOLO                                           Antonio de luque                                  679   000000003200CONCORDIA (3200-0)                                08brianjtoniolo@gmail.com                           M00100044074158F                                                  03                    2002-04-1200                                                                                                                                                                     0000000001000000000000000000000000000000000000000000000000
080040032980100068239000000000003792836202509058620222522758DANILO                                            CALE                                              avda corrientes                                   327   000000001131Ciudad Autónoma de Buenos Aires (CABA)            51danilo@danilo.com.ar                              M00100022252275F                                                  037                   1971-07-3000                                                                                                                                                                     0000000001000000000000000000000000000000000000000000000000
