080040032980100104145000000000000243245202509018623223051324ANDREA BEATRIZ                                    LANDRA                                            Rivadavia                                         361   000000003103VILLA LIBERTADOR SAN MARTÍN (3103-0)              00landra.andrea@gmail.com                           F00000022305132F                                                  03                    1971-11-0700              N                                                                                                                                                      0000000001000000000000000000000000000000000000000000000000
080040032990100087533000000000000273219202509018620241891179ANGEL DANIEL                                      SANCHEZ                                           los fresnos                                       535   000000003116CRESPO (3116-2)                                   00agencia948@gmail.com                              M00000024189117F                                                  03                    1975-03-2600              N                                                                                                                                                      0000000001000000000000000000000000000000000000000000000000
080040032960100034298000000000003969848202509018627325099653LUISINA NOE                                       ITURRIA                                           Teniente Gonzales                                 670   000000003100PARANA (3100-0)                                   00iluisina@gmail.com                                F00000032509965F                                                  03                    1986-11-0800              N                                                                                                                                                      0000000001000000000000000000000000000000000000000000000000
080040032980100111773000000000000216775202509018620266107561FRANCISCO                                         BERNAL                                            Mitre                                             998   000000003260CONCEPCION DEL URUGUAY (3260-1)                   00berfrancisco@hotmail.com                          M00000026610756F                                                  03                    1978-07-0100              N                                                                                                                                                      0000000001000000000000000000000000000000000000000000000000
080040032980100111096000000000003792836202509018627239070669ANDREA                                            DE CONSTANCIO                                     Las acacias                                       974   000000003265VILLA ELISA (3265-1)                              00andreadeconstancio@gmail.com                      F00000023907066F                                                  03                    1974-07-1500              N                                                                                                                                                      0000000001000000000000000000000000000000000000000000000000
080040032990100100799000000000000450876202509018620179574013SERGIO ROMAN                                      FALCON                                            Diagonal malarin                                  311   000000003218SAN SALVADOR (3218-0)                             00agencia1077@gmail.com                             M00000017957401F                                                  03                    1966-11-0200              N                                                                                                                                                      0000000001000000000000000000000000000000000000000000000000
080040032980100017356000000000000243245202509018627119372440NORMA MARIA                                       CIAN                                              libaros                                           2     000000003170ESTACION LIBAROS (3170-1)                         00normacian953@gmail.com                            F00000011937244F                                                  03                    1956-02-2800              N                                                                                                                                                      0000000001000000000000000000000000000000000000000000000000
080040032980100052478000000000003792836202509018627463924509GUADALUPE                                         PAREDES                                           Buenos Aires                                      300   000000003187SAN JOSÉ DE FELICIANO (3187-0)                    00belenparedes366@gmail.com                         F00000046392450F                                                  03                    2005-04-2800              N                                                                                                                                                      0000000001000000000000000000000000000000000000000000000000
080130013160100011570000000000000130312202509018627141609721SUSANA MARGARITA                                  SCHICK                                            Coronel Haedo                                     1771  000000003100PARANA (3100-0)                                   00colores753@yahoo.com.ar                           F00000014160972F                                                  03                    1961-11-0800              N                                                                                                                                                      0000000001000000000000000000000000000000000000000000000000
080040032990100067714000000000006008333202509018623121735679HUGO ROGELIO                                      VOELKER                                           AMERICA                                           1068  000000003116CRESPO (3116-2)                                   00mejumilla@gmail.com                               M00000012173567F                                                  03                    1956-12-2200              N                                                                                                                                                      0000000001000000000000000000000000000000000000000000000000
080040033000100002072000000000000629484202509018620308293557JULIO IGNACIO                                     CABRERA                                           Ramírez                                           1360  000000003100PARANA (3100-0)                                   00juampy_cabrera@hotmail.com                        M00000030829355F                                                  03                    1984-03-2200              N                                                                                                                                                      0000000001000000000000000000000000000000000000000000000000
080040033000100100389000000000007737671202509018623379764789LUIS                                              VERGARA                                           Juan Báez                                         130   000000003100PARANA (3100-0)                                   00nahirfischer951@gmail.com                         M00000037976478F                                                  031         1         1980-09-0100              N                                                                                                                                                      0000000001000000000000000000000000000000000000000000000000
080040033000100023838000000000000602422202509018620047098093LEOPOLDO SALOMON                                  JAIMOVICH                                         Urquiza                                           871   000000003280COLON (3280-0)                                    00polibus887@gmail.com                              M00000004709809F                                                  03                    1948-10-0800              N                                                                                                                                                      0000000001000000000000000000000000000000000000000000000000
080040033000100058129000000000000602422202509018620291212353DANIEL                                            PUNTIN                                            dr pintos                                         880   000000003100PARANA (3100-0)                                   00danielpuntin@gmail.com                            M00000029121235F                                                  03                    1981-11-1300              N                                                                                                                                                      0000000001000000000000000000000000000000000000000000000000
080040032980100040120000000000000216775202509018620085920945RAMON                                             BENITEZ                                           Ejido oeste                                       4     000000003187SAN JOSÉ DE FELICIANO (3187-0)                    00agencia0068@gmail.com                             M00000008592094F                                                  03                    1951-10-3000              N                                                                                                                                                      0000000001000000000000000000000000000000000000000000000000
080040032980100017392000000000000243245202509018620234079124HECTOR                                            MULLER                                            libaros                                           19    000000003170ESTACION LIBAROS (3170-1)                         00cachimuller73@gmail.com                           M00000023407912F                                                  03                    1973-10-1400              N                                                                                                                                                      0000000001000000000000000000000000000000000000000000000000
080040032980100121924000000000003792836202509018627417968615GUADALUPE                                         SCETTI                                            Fray Justo Santa Maria de Oro                     1173  000000003158LUCAS GONZALEZ (3158-1)                           00guadiscetti22@gmail.com                           F00000041796861F                                                  03                    1999-10-2200              N                                                                                                                                                      0000000001000000000000000000000000000000000000000000000000
080040032980100102038000000000003792836202509018620169890189ROQUE VICTOR                                      NUÑEZ                                             Chabrillon                                        805   000000003200CONCORDIA (3200-0)                                00victornunez1965@gmail.com                         M00000016989018F                                                  03PB                  1965-03-0100              N                                                                                                                                                      0000000001000000000000000000000000000000000000000000000000
080040032980100060436000000000000243245202509018623118071654NÉLIDA GRACIELA                                   VARELA                                            AV. Tuyango                                       501   000000003129PIEDRAS BLANCAS (3129-0)                          00chelavarela@gmail.com                             F00000011807165F                                                  03                    1955-09-0700              N                                                                                                                                                      0000000001000000000000000000000000000000000000000000000000
080040032980100065988000000000003792836202509018620084926915JUAN DE DIOS                                      DUTRA                                             Sarmiento                                         235   000000003187SAN JOSÉ DE FELICIANO (3187-0)                    00agencia0068@gmail.com                             M00000008492691F                                                  03                    1951-03-1100              N                                                                                                                                                      0000000001000000000000000000000000000000000000000000000000
080040032980100097975000000000000216775202509018627334164239MARÍA LAURA                                       BENAVENTO                                         palacios                                          1095  000000002820GUALEGUAYCHU (2820-0)                             00matias_benavento@hotmail.com                      F00000033416423F                                                  03                    1988-02-2100              N                                                                                                                                                      0000000001000000000000000000000000000000000000000000000000
080040032990100040000000000000000273219202509018620169890189ROQUE VICTOR                                      NUÑEZ                                             Chabrillon                                        805   000000003200CONCORDIA (3200-0)                                00victornunez1965@gmail.com                         M00000016989018F                                                  03PB                  1965-03-0100              N                                                                                                                                                      0000000001000000000000000000000000000000000000000000000000
080040032990100012825000000000000273219202509018620182738736RAUL                                              PINO                                              Cnel Brandsen                                     934   000000003100PARANA (3100-0)                                   00raulpino40@gmail.com                              M00000018273873F                                                  03                    1967-09-3000              N                                                                                                                                                      0000000001000000000000000000000000000000000000000000000000
080040032990100046685000000000000273219202509018620146699139CARLOS DARIO                                      LOPEZ                                             Antártida Argentina                               2335  000000003150NOGOYA (3150-0)                                   00agencia.1308@gmail.com                            M00000014669913F                                                  03                    1962-04-1600              N                                                                                                                                                      0000000001000000000000000000000000000000000000000000000000
080040033000100054249000000000007737671202509018627445557078MELANIE                                           BASTIDA GALEANO                                   las magnolias                                     787   000000003206FEDERACIÓN (3206-0)                               00bastidameli02@gmail.com                           F00000044555707F                                                  03                    2002-10-1800              N                                                                                                                                                      0000000001000000000000000000000000000000000000000000000000
080040033000100020294000000000000629484202509018627169924797MÓDICA GRACIELA                                   CASTELLI                                          RCA de E.Rios                                     559   000000003190LA PAZ (3190-0)                                   00agencia0785@gmail.com                             F00000016992479F                                                  03                    1964-10-2600              N                                                                                                                                                      0000000001000000000000000000000000000000000000000000000000
080040033000100060988000000000007135249202509018627268778204GABRIELA                                          ROMANI                                            av ejercito                                       1827  000000003100PARANA (3100-0)                                   00gabrielaromani41@gmail.con                        F00000026877820F                                                  03                    1979-01-1100              N                                                                                                                                                      0000000001000000000000000000000000000000000000000000000000
080040033000100076567000000000007764733202509018627066686480FLORA                                             VALENZUELA                                        Pasaje San Agustin                                678   000000003200CONCORDIA (3200-0)                                00fv678sab@gmail.com                                F00000006668648F                                                  03                    1951-06-2800              N                                                                                                                                                      0000000001000000000000000000000000000000000000000000000000
080040033000100058043000000000007135249202509018620058846741GREGORIO ROMUALDO                                 PIFFO                                             3 de febrero                                      1032  000000003150NOGOYA (3150-0)                                   00saldanapaula40@gmail.com                          M00000005884674F                                                  03                    1947-02-0700              N                                                                                                                                                      0000000001000000000000000000000000000000000000000000000000
080040033000100052815000000000000602422202509018620274679396EMILIANO ISMAEL                                   PELLO                                             saba z. hernandez s/n 16 centenario               0     000000003158LUCAS GONZALEZ (3158-1)                           00emilianopello@yahoo.com.ar                        M00000027467939F                                                  03                    1979-11-1400              N                                                                                                                                                      0000000001000000000000000000000000000000000000000000000000
080040032980100053850000000000000216775202509018627104138719GRACIELA SOLEDAD                                  PRINSICH                                          DIAGONAL INDUSTRIA                                260   000000003122CERRITO (3122-1)                                  00Agencia0074@gmail.com                             F00000010413871F                                                  03                    1953-05-2200              N                                                                                                                                                      0000000001000000000000000000000000000000000000000000000000
080040032980100114227000000000049572792202509018627357178482ÉRIKA NEREA                                       SANTOS                                            Ricardo couchot                                   154   000000002846IBICUY (2846-0)                                   00erikanereas86@gmail.com                           F00000035717848F                                                  03                    2024-05-1700              N                                                                                                                                                      0000000001000000000000000000000000000000000000000000000000
080040032980100121351000000000003792836202509018627059807094GLORIA                                            HERGERT                                           leguizamon                                        92    000000000000ROSARIO DEL TALA (3174-2)                         00glosar2@hotmail.com                               F00000005980709F                                                  03                    1948-12-2200              N                                                                                                                                                      0000000001000000000000000000000000000000000000000000000000
080040032980100122278000000000000216775202509018620406938620ATILIO RAFAEL                                     GAYOSO                                            Garay                                             140   000000003100PARANA (3100-0)                                   00atirafa16@gmail.com                               M00000040693862F                                                  031                   0007-12-0300              N                                                                                                                                                      0000000001000000000000000000000000000000000000000000000000
080130013160100012389000000000000130312202509018627053090848ROSA                                              MACIEL                                            Pérez Colman                                      535   000000003100PARANA (3100-0)                                   00agencia0566@gmail.com                             F00000005309084F                                                  031                   2047-01-2000              N                                                                                                                                                      0000000001000000000000000000000000000000000000000000000000
080040032990100011994000000000000273219202509018627064973369MARÍA CRISTINA                                    PRESSENDA                                         Mariano Moreno                                    103   000000003100PARANA (3100-0)                                   00geraldina.noro@gmail.com                          F00000006497336F                                                  03                    1951-02-2800              N                                                                                                                                                      0000000001000000000000000000000000000000000000000000000000
080040032990100068652000000000000450876202509018620350708244CLAUDIO GUSTAVO                                   FERNANDEZ                                         gravioto                                          1105  000000000000COLON (3280-0)                                    00claudiogf2@gmail.com                              M00000035070824F                                                  03                    1990-05-0800              N                                                                                                                                                      0000000001000000000000000000000000000000000000000000000000
080040032990100051797000000000000450876202509018620173099542RAUL ESTEBAN                                      LEIVA                                             PASAJE LIBERTAD                                   25    000000003200CONCORDIA (3200-0)                                00agencia0289@gmail.com                             M00000017309954F                                                  03                    1965-10-0600              N                                                                                                                                                      0000000001000000000000000000000000000000000000000000000000
080040032990100011657000000000006008333202509018620106942855DANIEL                                            ROSSI                                             San martin                                        1247  000000003116CRESPO (3116-2)                                   00agencia00739@gmail.com                            M00000010694285F                                                  03                    2024-02-0600              N                                                                                                                                                      0000000001000000000000000000000000000000000000000000000000
080040032990100030211000000000006281552202509018620245908327GUSTAVO RAFAEL                                    MULLER                                            de la yerra                                       759   000000003100PARANA (3100-0)                                   00mullergustavo35@gmail.com                         M00000024590832F                                                  03                    1975-07-1200              N                                                                                                                                                      0000000001000000000000000000000000000000000000000000000000
080040032990100046597000000000000273219202509018620242361033RAUL ALBERTO                                      LESCANO                                           mitre                                             891   000000003260CONCEPCION DEL URUGUAY (3260-1)                   00gabvidal683@gmail.com                             M00000024236103F                                                  03                    1976-04-2300              N                                                                                                                                                      0000000001000000000000000000000000000000000000000000000000
080040032990100053206000000000006008333202509018620149941925CLAUDIO MANUEL                                    LÓPEZ C                                           Urquiza                                           102   000000000000COLONIA AVELLANEDA (3100-2)                       00agencia891@gmail.com                              M00000014994192F                                                  031         1         1962-03-0800              N                                                                                                                                                      0000000001000000000000000000000000000000000000000000000000
080040032990100074088000000000006008333202509018627278353600ROSANA MARICEL                                    GORO                                              Pellegrini                                        323   000000003174ROSARIO DEL TALA (3174-2)                         00rosanagoro28@hotmail.com                          F00000027835360F                                                  03                    1980-01-0400              N                                                                                                                                                      0000000001000000000000000000000000000000000000000000000000
080040032990100054979000000000000273219202509018620054062630PABLO PEDRO                                       GERNER                                            tucuman                                           951   000000003116CRESPO (3116-2)                                   00agencia948@gmail.com                              M00000005406263F                                                  03                    1949-06-2900              N                                                                                                                                                      0000000001000000000000000000000000000000000000000000000000
080040032990100006790000000000006008333202509018620233416739AVELINO JESUS RAMON                               MENESCARDI                                        Hernandarias                                      404   000000002843GENERAL GALARZA (2843-0)                          00estudiocontablemz2019@gmail.com                   M00000023341673F                                                  03                    1974-02-2300              N                                                                                                                                                      0000000001000000000000000000000000000000000000000000000000
080040032990100032250000000000000273219202509018620177756955GABRIEL OSCAR                                     VIDAL                                             MITRE                                             521   000000003260CONCEPCION DEL URUGUAY (3260-1)                   00agenciaoficial1376@gmail.com                      M00000017775695F                                                  03                    1965-11-1000              N                                                                                                                                                      0000000001000000000000000000000000000000000000000000000000
080040033000100051537000000000000602422202509018620179061490ALDO HUMBERTO                                     SOMMER                                            1006                                              1536  000000003100PARANA (3100-0)                                   00agencia942@gmail.com                              M00000017906149F                                                  03                    1966-12-1100              N                                                                                                                                                      0000000001000000000000000000000000000000000000000000000000
080040033000100021275000000000007135249202509018623285339529MAURO                                             ARELLANO                                          belgrano                                          1678  000000003260CONCEPCION DEL URUGUAY (3260-1)                   00fede_646@hotmail.com                              M00000028533952F                                                  030         0         1981-07-0700              N                                                                                                                                                      0000000001000000000000000000000000000000000000000000000000
080040033000100104231000000000000629484202509018620264509697JOSE HUMBERTO                                     LOPEZ                                             rivadavia                                         335   000000003170BASAVILBASO (3170-0)                              00agenciaof070@gmail.com                            M00000026450969F                                                  03                    1978-05-2400              N                                                                                                                                                      0000000001000000000000000000000000000000000000000000000000
080130013170100005295000000000000162954202509018620239171207PABLO RAMIRO                                      FERNÁNDEZ                                         Tucumán                                           963   000000003150NOGOYA (3150-0)                                   00cemarrepuestos@yahoo.com.ar                       M00000023917120F                                                  03                    1974-07-2200              N                                                                                                                                                      0000000001000000000000000000000000000000000000000000000000
080130013170100011130000000000000162954202509018623324112804JOANA                                             FABRE                                             jordana                                           415   000000003260CONCEPCION DEL URUGUAY (3260-1)                   00agencia1287@gmail.com                             F00000032411280F                                                  03                    1986-11-1300              N                                                                                                                                                      0000000001000000000000000000000000000000000000000000000000
080040033000100100062000000000000602422202509018627297665222CARLOS                                            RODRIGUEZ                                         pasteur                                           196   000000002820GUALEGUAYCHU (2820-0)                             00monijavi2@gmail.com                               M00000029766522F                                                  03                    1984-11-0900              N                                                                                                                                                      0000000001000000000000000000000000000000000000000000000000
080040033000100073511000000000000602422202509018627141601003DELIA ITATÍ                                       SANCHEZ                                           ARROYO CORRENTOSO                                 3526  000000003100PARANA (3100-0)                                   00sanchezdelia700@gmail.com                         F00000014160100F                                                  03                    1961-01-2600              N                                                                                                                                                      0000000001000000000000000000000000000000000000000000000000
080040033000100017973000000000000602422202509018620122844901LUIS RAÚL  DE DIOS                                FLESLER                                           Piedrabuena                                       125   000000003100PARANA (3100-0)                                   00agencia942@gmail.com                              M00000012284490F                                                  03                    1958-10-1200              N                                                                                                                                                      0000000001000000000000000000000000000000000000000000000000
080040033000100131464000000000007135249202509018620319951580LUCAS                                             ACOSTA                                            Ejército argentino                                1745  000000003100PARANA (3100-0)                                   00agencia.no.316@gmail.com                          M00000031995158F                                                  03Pb        0         2024-01-0300              N                                                                                                                                                      0000000001000000000000000000000000000000000000000000000000
080040033000100093583000000000000629484202509018620287171219GUSTAVO                                           SALGARO                                           gualeguay                                         231   000000003150NOGOYA (3150-0)                                   00agencia368vg@gmail.com                            M00000028717121F                                                  03                    1981-05-1400              N                                                                                                                                                      0000000001000000000000000000000000000000000000000000000000
080040033000100089088000000000007135249202509018620238748330CLAUDIO GABRIEL                                   MARCHAND                                          avenida san martin                                57    000000003170BASAVILBASO (3170-0)                              00casamarchand@hotmail.com                          M00000023874833F                                                  03                    1974-04-2200              N                                                                                                                                                      0000000001000000000000000000000000000000000000000000000000
080040033000100119252000000000007135249202509018627027228246ZULMA MYRELLA JESUS                               MAGNI                                             Florentino Ameghino                               64    000000003100PARANA (3100-0)                                   00agencianum111@gmail.com                           F00000002722824F                                                  03                    1938-01-0500              N                                                                                                                                                      0000000001000000000000000000000000000000000000000000000000
080040033000100001867000000000007135249202509018627317002438NADIA                                             VILABOA                                           calle                                             63    000000002820GUALEGUAYCHU (2820-0)                             00navilaboa@gmail.com                               F00000031700243F                                                  03                    1985-10-2100              N                                                                                                                                                      0000000001000000000000000000000000000000000000000000000000
080040033000100045579000000000000629484202509018620175179675CARLOS ALBERTO                                    TELAGORRI                                         Valentin Vergara                                  0     000000000000DIAMANTE (3105-0)                                 00agencia.471@gmail.com                             M00000017517967F                                                  03                    1965-08-0900              N                                                                                                                                                      0000000001000000000000000000000000000000000000000000000000
080040033000100123575000000000000629484202509018627238361880GLADYS ROSANA                                     CANO                                              Barrio Yapeyú                                     89    000000002820GUALEGUAYCHU (2820-0)                             00canorosana.74g@gmail.com                          F00000023836188F                                                  03                    1974-06-1300              N                                                                                                                                                      0000000001000000000000000000000000000000000000000000000000
080040033000100121281000000000000602422202509018620444647591LUCAS JAVIER                                      IACHINI                                           Alem 140                                          13    000000000000CONCORDIA (3200-0)                                00iachini45@gmail.com                               M00000044464759F                                                  033         A         2001-09-2600              N                                                                                                                                                      0000000001000000000000000000000000000000000000000000000000
080040032960100128453000000000000975212202509018620085628160OSCAR ALFREDO                                     ALMADA                                            JJ Sola                                           102   000000003200CONCORDIA (3200-0)                                00agencia149cdia@gmail.com                          M00000008562816F                                                  03                    1951-07-0100              N                                                                                                                                                      0000000001000000000000000000000000000000000000000000000000
080040032960100108034000000000000629665202509018627060674790NORMA BEATRIZ                                     PEREZ                                             nogolla                                           1118  000000003200CONCORDIA (3200-0)                                00agencia1059@gmail.com                             F00000006067479F                                                  03                    1949-11-0400              N                                                                                                                                                      0000000001000000000000000000000000000000000000000000000000
080040032960100052367000000000003969848202509018620300192352MIGUEL ANGEL                                      ALEGRE                                            estancia el descanso                              0     000000003262ESTACION CASEROS (3262-0)                         00agencia0475@gmail.com                             M00000030019235F                                                  0300        00        1983-03-1600              N                                                                                                                                                      0000000001000000000000000000000000000000000000000000000000
080040032970100076220000000000000202296202509018627215828366LUISA DANIELA                                     PEREYRA                                           Gral juan jose valle                              1800  000000003100PARANA (3100-0)                                   00luisadanielazandomeni@gmail.com                   F00000021582836F                                                  03                    1970-05-0800              N                                                                                                                                                      0000000001000000000000000000000000000000000000000000000000
080040032980100058916000000000000216775202509018620283496369LEONARDO JULIO                                    ALFONZO                                           buenos aires                                      703   000000002820GUALEGUAYCHU (2820-0)                             00leoalfonzo636@gmail.com                           M00000028349636F                                                  03                    1980-12-2000              N                                                                                                                                                      0000000001000000000000000000000000000000000000000000000000
080040032980100095138000000000000216775202509018620174911070DANIEL ANGEL                                      GRUNEWALD                                         Fco.Ramirez                                       306   000000003142BOVRIL (3142-1)                                   00Danielgrunewald2008@hotmail.com                   M00000017491107F                                                  03                    1965-05-2600              N                                                                                                                                                      0000000001000000000000000000000000000000000000000000000000
080040032980100020171000000000000243245202509018620084167011BENIGNO                                           KLOSTER                                           saboya                                            1440  000000000000VILLA ELISA (3265-1)                              00agencia348velisa@gmail.com                        M00000008416701F                                                  03                    1946-01-3000              N                                                                                                                                                      0000000001000000000000000000000000000000000000000000000000
080040032980100066226000000000000243245202509018620224498323MAXIMO GABRIEL                                    CHAPARRO                                          Av. San Martin                                    12    000000003164GENERAL RAMIREZ (3164-0)                          00agencia.800.a@gmeil.com                           M00000022449832F                                                  03                    1971-11-2000              N                                                                                                                                                      0000000001000000000000000000000000000000000000000000000000
080040032980100129053000000000000243245202509018620058269108MELCHOR                                           SCHNEIDER                                         Chacabuco                                         231   000000003153VICTORIA (3153-0)                                 00laaaauuuu12@gmail.com                             M00000005826910F                                                  0300        00        1943-08-2500              N                                                                                                                                                      0000000001000000000000000000000000000000000000000000000000
080040032980100085406000000000000216775202509018620178706102ALFONSO JACINTO                                   NAVARRO                                           Junín                                             335   000000003153VICTORIA (3153-0)                                 00pichinnavarro8094@gmail.com                       M00000017870610F                                                  03                    1966-12-1300              N                                                                                                                                                      0000000001000000000000000000000000000000000000000000000000
080040032980100034821000000000000216775202509018620174018597RUBEN DARIO                                       LEDESMA                                           Cortada Norte                                     11    000000000000VILLAGUAY (3240-0)                                00agencia834@gmail.com                              M00000017401859F                                                  030         0         1965-08-0400              N                                                                                                                                                      0000000001000000000000000000000000000000000000000000000000
080040032980100101048000000000003792836202509018620136316584JAVIER HUGO                                       DAVOLI                                            Lopez y Planes                                    73    000000003100PARANA (3100-0)                                   00jhdavoli@hotmail.com                              M00000013631658F                                                  03                    1960-04-0700              N                                                                                                                                                      0000000001000000000000000000000000000000000000000000000000
080040032980100047692000000000000216775202509018620206706687ALFREDO CONRADO                                   FRIGO                                             Barrio Sol                                        16    000000003174ROSARIO DEL TALA (3174-2)                         00alfredofrigo@hotmail.com                          M00000020670668F                                                  03                    1969-07-0400              N                                                                                                                                                      0000000001000000000000000000000000000000000000000000000000
080130013160100007719000000000000130312202509018627143571292GRISELDA LETICIA                                  DALURZO                                           Floriano Zapata                                   108   000000003100PARANA (3100-0)                                   00leticiadalurzo@gmail.com                          F00000014357129F                                                  03                    1961-01-0200              N                                                                                                                                                      0000000001000000000000000000000000000000000000000000000000
080040032990100038519000000000000450876202509018627205535905MARIELA INES                                      GAUNA                                             santa maria                                       2279  000000003100COLONIA AVELLANEDA (3100-2)                       00agencia955@hotmail.com                            F00000020553590F                                                  03                    1969-01-2200              N                                                                                                                                                      0000000001000000000000000000000000000000000000000000000000
080040032990100007103000000000000450876202509018620108850435ATILIO ELIAS                                      POETTO                                            Olavarria                                         1407  000000003265VILLA ELISA (3265-1)                              00Agencia797@gmail.con                              M00000010885043F                                                  03                    0053-10-3000              N                                                                                                                                                      0000000001000000000000000000000000000000000000000000000000
080040032990100077839000000000000273219202509018627174911512ANGELICA MABEL                                    AMARILLO                                          Parana v tira                                     30    000000003100PARANA (3100-0)                                   00mabelamarillo077@gmail.com                        F00000017491151F                                                  03          123       1965-04-2700              N                                                                                                                                                      0000000001000000000000000000000000000000000000000000000000
080040032990100036192000000000006008333202509018620401647032EMILIANO                                          TRONCOSO                                          laurencena                                        174   000000002840GUALEGUAY (2840-0)                                00emilianotrr10@gmail.com                           M00000040164703F                                                  03                    1997-07-2200              N                                                                                                                                                      0000000001000000000000000000000000000000000000000000000000
080040032990100032576000000000006008333202509018620240029414VICTOR ANTONIO                                    DEL MAESTRO                                       America                                           217   000000003153VICTORIA (3153-0)                                 00Laaaauuuu12@gmail.com                             M00000024002941F                                                  03.         .         1974-08-1500              N                                                                                                                                                      0000000001000000000000000000000000000000000000000000000000
080040032990100089930000000000006008333202509018620084201066LEOPOLDO LORENZO                                  GONZALEZ                                          mitre                                             909   000000003240VILLAGUAY (3240-0)                                00valentinbrugo@hotmail.com                         M00000008420106F                                                  03                    1947-07-2900              N                                                                                                                                                      0000000001000000000000000000000000000000000000000000000000
080040032990100014012000000000000273219202509018627139750913HILDA CECILIA                                     GIOVANETTI                                        pasaje ex combatiente                             17    000000002845GOBERNADOR MANSILLA (2845-0)                      00giovanetticecilia71@gmail.com                     F00000013975091F                                                  03no        no        1960-11-2200              N                                                                                                                                                      0000000001000000000000000000000000000000000000000000000000
080040032990100049757000000000000273219202509018620363050728SERGIO NICOLAS                                    HILL                                              parana                                            222   000000003240VILLAGUAY (3240-0)                                00batacazoagencia0157@gmail.com                     M00000036305072F                                                  03                    1991-04-2600              N                                                                                                                                                      0000000001000000000000000000000000000000000000000000000000
080040032990100032886000000000000273219202509018620170883102CARLOS RAMON                                      VILLALVA                                          avda los rusos                                    867   000000003218SAN SALVADOR (3218-0)                             00agencia0086@gmail.com                             M00000017088310F                                                  03                    1964-11-2400              N                                                                                                                                                      0000000001000000000000000000000000000000000000000000000000
080040032990100088107000000000006008333202509018620160100886OSCAR ALBERTO                                     RODRIGUEZ                                         Sargento cabral                                   510   000000000000CONCORDIA (3200-0)                                00agencia.1180@gmail.com                            M00000016010088F                                                  03                    1962-06-0500              N                                                                                                                                                      0000000001000000000000000000000000000000000000000000000000
080040032990100084271000000000000273219202509018624457574130MILOVÁN ANDRÉS                                    IZAGUIRRE                                         Concejal Veiga                                    2015  000000003200CONCORDIA (3200-0)                                00MartilloPena@hotmail.com                          M00000045757413F                                                  030         0         2004-03-0100              N                                                                                                                                                      0000000001000000000000000000000000000000000000000000000000
080040032990100054451000000000000273219202509018620319953435ORLANDO JAVIER                                    VEIGA                                             Lavalleja Juan                                    1095  000000003100PARANA (3100-0)                                   00orlandojveiga@gmail.com                           M00000031995343F                                                  03                    1986-01-1400              N                                                                                                                                                      0000000001000000000000000000000000000000000000000000000000
080040032990100080728000000000006008333202509018623135745154NILDA MARÍA ELIDA                                 ZEBALLO                                           San Martín                                        490   000000003162ARANGUREN (3162-0)                                00nildazeballo60@gmail.com                          F00000013574515F                                                  03                    1959-11-0400              N                                                                                                                                                      0000000001000000000000000000000000000000000000000000000000
080040032990100004707000000000006008333202509018620300192352MIGUEL ANGEL                                      ALEGRE                                            estancia el descanso                              0     000000003262ESTACION CASEROS (3262-0)                         00agencia0475@gmail.com                             M00000030019235F                                                  0300        00        1983-03-1600              N                                                                                                                                                      0000000001000000000000000000000000000000000000000000000000
080040032990100016244000000000000450876202509018623350289259CRISTIAN                                          LEIVA                                             San martin                                        752   000000003107SAN BENITO (3107-0)                               00cristian.j.l.leiva@gmail.com                      M00000035028925F                                                  03                    1990-02-0600              N                                                                                                                                                      0000000001000000000000000000000000000000000000000000000000
080040032990100022361000000000006008333202509018627412861502YISEL FERNANDA                                    NUÑEZ                                             s/n                                               1     000000003263PRONUNCIAMIENTO (3263-0)                          00yicene@gmail.com                                  F00000041286150F                                                  03                    1998-11-0800              N                                                                                                                                                      0000000001000000000000000000000000000000000000000000000000
080040033000100070982000000000000629484202509018620108609711RICARDO MARIO                                     RODRIGUEZ                                         estanislao lopez                                  150   000000003003Helvecia                                          00agencia961@gmail.com                              M00000010860971F                                                  03                    1954-01-0500              N                                                                                                                                                      0000000001000000000000000000000000000000000000000000000000
080040033000100073123000000000007135249202509018623217360439ANIBAL ARMANDO                                    SALVI                                             Araujo Penon                                      286   000000003280COLON (3280-0)                                    00anibalsalvi@hotmail.com                           M00000021736043F                                                  03                    1970-08-0200              N                                                                                                                                                      0000000001000000000000000000000000000000000000000000000000
080040033000100128781000000000007737671202509018620341105057SANDRO EXEQUIEL                                   FOLMER                                            mitre                                             549   000000000000GUALEGUAYCHU (2820-0)                             00agencia492gualeguaychu@hotmail.com                M00000034110505F                                                  031         1         0089-01-1600              N                                                                                                                                                      0000000001000000000000000000000000000000000000000000000000
080040033000100060624000000000007135249202509018620803929204RICARDO ALBERTO                                   BENÍTEZ                                           Calle pública                                     147   000000000000BASAVILBASO (3170-0)                              00ricardoalbertobenitez@hotmail.com.ar              M00000080392920F                                                  03                    1950-08-0800              N                                                                                                                                                      0000000001000000000000000000000000000000000000000000000000
080040033000100050122000000000007135249202509018627141601003DELIA ITATÍ                                       SANCHEZ                                           ARROYO CORRENTOSO                                 3526  000000003100PARANA (3100-0)                                   00sanchezdelia700@gmail.com                         F00000014160100F                                                  03                    1961-01-2600              N                                                                                                                                                      0000000001000000000000000000000000000000000000000000000000
080040033000100007533000000000007135249202509018620112007041HUGO RAUL                                         FARIAS                                            Martin del Barco Centenera                        354   000000003100PARANA (3100-0)                                   00atirafa22@gmail.com                               M00000011200704F                                                  03                    1954-02-0900              N                                                                                                                                                      0000000001000000000000000000000000000000000000000000000000
080040033000100102078000000000000629484202509018623124567254MARIA ISABEL                                      VERDALA                                           Ricardo Balbin                                    272   000000000000SAN SALVADOR (3218-0)                             00agencia1077@gmail.com                             F00000012456725F                                                  03                    1958-06-0300              N                                                                                                                                                      0000000001000000000000000000000000000000000000000000000000
080040033000100098390000000000000602422202509018627424641605SOFIA                                             OBERTI                                            Cochabamba                                        317   000000000000VICTORIA (3153-0)                                 00sofiaoberti15@gmail.com                           F00000042464160F                                                  03                    2000-03-0500              N                                                                                                                                                      0000000001000000000000000000000000000000000000000000000000
080040033000100019609000000000000602422202509018627127722973CRISTINA MABEL                                    URRUTIA                                           pucara                                            1256  000000003100PARANA (3100-0)                                   00mabelcristi1@hotmail.com                          F00000012772297F                                                  03                    1957-01-0500              N                                                                                                                                                      0000000001000000000000000000000000000000000000000000000000
080040033000100127357000000000007135249202509018620398383533MARTIN OSCAR                                      CLOTET                                            25 de mayo                                        1425  000000000000NOGOYA (3150-0)                                   00martinclotetquinodoz@gmail.com                    M00000039838353F                                                  03                    1997-01-1100              N                                                                                                                                                      0000000001000000000000000000000000000000000000000000000000
080130013170100003691000000000000162954202509018620224498323MAXIMO GABRIEL                                    CHAPARRO                                          Av. San Martin                                    12    000000003164GENERAL RAMIREZ (3164-0)                          00agencia.800.a@gmeil.com                           M00000022449832F                                                  03                    1971-11-2000              N                                                                                                                                                      0000000001000000000000000000000000000000000000000000000000
080040033000100127509000000000000602422202509018620220267149CRISTIAN GUSTAVO                                  RODRÍGUEZ                                         Los Zorzales                                      166   000000003100ORO VERDE (3100-1)                                00cristiangridriguez@live.com                       M00000022026714F                                                  03                    2023-12-2800              N                                                                                                                                                      0000000001000000000000000000000000000000000000000000000000
080040033000100083627000000000007135249202509018623345497374PRISCILA ANTONELLA                                ARISMENDI                                         Diaz de vivar                                     1082  000000000000PARANA (3100-0)                                   00antoloka77@gmail.com                              F00000034549737F                                                  030         0         1989-05-0800              N                                                                                                                                                      0000000001000000000000000000000000000000000000000000000000
080040033000100108332000000000007135249202509018620274431408PABLO DANIEL                                      FARNEDA                                           Rivadavia                                         3525  000000003228CHAJARI (3228-0)                                  00pablofotografia@gmail.com                         M00000027443140F                                                  03                    1979-06-0600              N                                                                                                                                                      0000000001000000000000000000000000000000000000000000000000
080040033000100129970000000000007737671202509018627263893625MIRNA LORENA                                      VALDEZ                                            Avenida de los Rusos                              786   000000003218SAN SALVADOR (3218-0)                             00lorenavaldez919@gmail.com                         F00000026389362F                                                  03                    1978-01-2500              N                                                                                                                                                      0000000001000000000000000000000000000000000000000000000000
080040033000100056604000000000000629484202509018627122738340MARIA                                             PERALTA                                           Almirante brown                                   1     000000000000IBICUY (2846-0)                                   00mariperalta@gmail.com                             F00000012273834F                                                  031         1         1956-05-3000              N                                                                                                                                                      0000000001000000000000000000000000000000000000000000000000
080040033000100055626000000000007135249202509018620297663691DARIO GERMAN                                      CANDIA                                            pje quebracho                                     1990  000000003180FEDERAL (3180-0)                                  00dariogermancandia@gmail.com                       M00000029766369F                                                  03                    1982-12-0400              N                                                                                                                                                      0000000001000000000000000000000000000000000000000000000000
080040033000100005006000000000007764733202509018620375619122RAMIRO                                            SAMPIERI                                          Caseros                                           537   000000003206FEDERACIÓN (3206-0)                               00rsampieri20@gmail.com                             M00000037561912F                                                  03                    1994-08-3000              N                                                                                                                                                      0000000001000000000000000000000000000000000000000000000000
080040033000100092009000000000000602422202509018620239072195JOSE ANIBAL                                       SCHEIFLER                                         rivadavia 606                                     606   000000003212LOS CHARRUAS (3212-0)                             00jasoim@hotmail.com                                M00000023907219F                                                  03                    1974-04-1200              N                                                                                                                                                      0000000001000000000000000000000000000000000000000000000000
080040033000100093110000000000179053248202509018620248065231ALFREDO NAHUEL                                    SALINI                                            chaco                                             1896  000000000000CHAJARI (3228-0)                                  00solcracco@gmail.com                               M00000024806523F                                                  03                    1975-09-0300              N                                                                                                                                                      0000000001000000000000000000000000000000000000000000000000
080040033000100056433000000000000602422202509018620163901340CLAUDIO                                           BOVIER                                            34 DEL OESTE NORTE                                259   000000003260CONCEPCION DEL URUGUAY (3260-1)                   00claciay@hotmail.com                               M00000016390134F                                                  03                    1963-11-0500              N                                                                                                                                                      0000000001000000000000000000000000000000000000000000000000
080040033000100018158000000000000602422202509018623172967094HERMINDA OFELIA                                   BARRIO                                            Santa cruz                                        150   000000003240VILLAGUAY (3240-0)                                00agencia839@gmail.com                              F00000017296709F                                                  031         3         2065-03-2100              N                                                                                                                                                      0000000001000000000000000000000000000000000000000000000000
080040033000100027788000000000000602422202509018623288118949NELSON HUGO                                       ROMERO                                            Santa fe                                          1016  000000000000SANTA ELENA (3192-0)                              00nelsonromero818181@gmail.com                      M00000028811894F                                                  03                    1981-06-2000              N                                                                                                                                                      0000000001000000000000000000000000000000000000000000000000
080040033000100041999000000000000629484202509018620287171219GUSTAVO                                           SALGARO                                           gualeguay                                         231   000000003150NOGOYA (3150-0)                                   00agencia368vg@gmail.com                            M00000028717121F                                                  03                    1981-05-1400              N                                                                                                                                                      0000000001000000000000000000000000000000000000000000000000
080040033000100031963000000000000602422202509018627057875300MARTA NOEMI                                       PEREZ                                             el ceibo                                          1008  000000003265VILLA ELISA (3265-1)                              00daiadurandd@gmail.com                             F00000005787530F                                                  03                    1949-09-0300              N                                                                                                                                                      0000000001000000000000000000000000000000000000000000000000
080040033000100087285000000000007135249202509018623051940849HECTOR ROBERTO                                    AMDRIOLI                                          25 de mayo                                        1171  000000000000NOGOYA (3150-0)                                   00hectorrobertoandrioli@gmail.com                   M00000005194084F                                                  03                    1941-10-1600              N                                                                                                                                                      0000000001000000000000000000000000000000000000000000000000
080040033000100000206000000000007135249202509018627059070660EMILIA MARGARITA                                  MARCHESINI                                        ituzaingo                                         462   000000000000GUALEGUAYCHU (2820-0)                             00margamarchesini@hotmail.com                       F00000005907066F                                                  03                    1948-10-2900              N                                                                                                                                                      0000000001000000000000000000000000000000000000000000000000
080040033000100022107000000000000602422202509018623110714564MARÌA DEL CARMEN NOEMÌ                            ELENA                                             Colòn                                             229   000000003100PARANA (3100-0)                                   00marichu-elena@hotmail.com                         F00000011071456F                                                  03-         -         1954-08-1600              N                                                                                                                                                      0000000001000000000000000000000000000000000000000000000000
080040033000100017043000000000007135249202509018627314338931LUCIA                                             AGÜERO                                            Concejal veiga                                    2879  000000003200CONCORDIA (3200-0)                                00agencia145concordia@gmail.com                     F00000031433893F                                                  03                    1985-02-0500              N                                                                                                                                                      0000000001000000000000000000000000000000000000000000000000
080040033000100067995000000000000629484202509018620295282526HOMERO HERNAN                                     WIGGENHAUSER                                      1685                                              13    000000003100PARANA (3100-0)                                   00whomerosyso@gmail.com                             M00000029528252F                                                  03                    1982-07-2600              N                                                                                                                                                      0000000001000000000000000000000000000000000000000000000000
080040033000100099408000000000007135249202509018620361030851JULIAN                                            BELLATTI                                          O´higgins                                         60    000000003100PARANA (3100-0)                                   00jfbellatti@hotmail.com.ar                         M00000036103085F                                                  03                    1991-06-2400              N                                                                                                                                                      0000000001000000000000000000000000000000000000000000000000
080040033000100006018000000000000629484202509018623238806569SANTIAGO IVAN                                     CIPRIANI                                          25 de mayo                                        638   000000003100PARANA (3100-0)                                   00ciprianisantiagoivan@gmail.com                    M00000023880656F                                                  03                    1974-08-1000              N                                                                                                                                                      0000000001000000000000000000000000000000000000000000000000
080040033000100044426000000000000629484202509018620083488299ALBERTO                                           ROSSI                                             rivadavia                                         621   000000003200CONCORDIA (3200-0)                                00rossialberto1@hotmail.com                         M00000008348829F                                                  03                    1946-12-0200              N                                                                                                                                                      0000000001000000000000000000000000000000000000000000000000
080130013170100001067000000000000162954202509018627274251129MARIA AMELIA                                      TRABICHET                                         URQUIZA                                           279   000000003260CONCEPCION DEL URUGUAY (3260-1)                   00agencia1287@gmail.com                             F00000027425112F                                                  03                    1980-02-0700              N                                                                                                                                                      0000000001000000000000000000000000000000000000000000000000
080130013150100006945000000000000156707202509018623160910534MIRTA GLADIZ                                      RODRIGUEZ                                         Ruta 18 km 81                                     81    000000000000LAS TUNAS (3111-0)                                00agencia966@gmail.com                              F00000016091053F                                                  03          Paran     1962-06-1900              N                                                                                                                                                      0000000001000000000000000000000000000000000000000000000000
080040032960100107049000000000003969848202509018623169927529RAUL CEFERINO                                     GONZALEZ                                          I. LA CATOLICCA                                   252   000000003240VILLAGUAY (3240-0)                                00agencia1057@hotmail.com                           M00000016992752F                                                  03                    1965-02-2000              N                                                                                                                                                      0000000001000000000000000000000000000000000000000000000000
080040032970100086843000000000000202296202509018620202556826RAMIRO DARDO                                      BREM                                              Alvear                                            1630  000000003265VILLA ELISA (3265-1)                              00ramirobrem68@gmail.com                            M00000020255682F                                                  03                    1968-04-2900              N                                                                                                                                                      0000000001000000000000000000000000000000000000000000000000
080040032980100032152000000000000243245202509018620185334024PASCUAL                                           LEIVA                                             9 de julio                                        712   000000003150NOGOYA (3150-0)                                   00agencia1194@gmail.com                             M00000018533402F                                                  03                    1967-06-0400              N                                                                                                                                                      0000000001000000000000000000000000000000000000000000000000
080040032980100106331000000000000243245202509018620174597813RAUL ANTONIO                                      SANNA                                             San Juan                                          1498  000000002820GUALEGUAYCHU (2820-0)                             00raulsanna.a@mail.com                              M00000017459781F                                                  03                    1965-10-0500              N                                                                                                                                                      0000000001000000000000000000000000000000000000000000000000
080040032980100012843000000000003792836202509018627216677272FABIANA                                           INSAURRALDE                                       repetto                                           1325  000000003228CHAJARI (3228-0)                                  00agencia388@gmail.com                              F00000021667727F                                                  032         .1        1987-12-1200              N                                                                                                                                                      0000000001000000000000000000000000000000000000000000000000
080040032980100041598000000000000216775202509018620084500381CLODOMIRO                                         RODRIGUEZ                                         Almafuerte                                        885   000000003100PARANA (3100-0)                                   00marcelorodriguezzanin123@gmail.com                M00000008450038F                                                  03                    1946-07-2800              N                                                                                                                                                      0000000001000000000000000000000000000000000000000000000000
080040032980100085778000000000000216775202509018620185334024PASCUAL                                           LEIVA                                             9 de julio                                        712   000000003150NOGOYA (3150-0)                                   00agencia1194@gmail.com                             M00000018533402F                                                  03                    1967-06-0400              N                                                                                                                                                      0000000001000000000000000000000000000000000000000000000000
080040032980100115944000000000000243245202509018623232544694STELLA MARIS                                      GONZALEZ                                          ISABEL LA CATOLICA                                252   000000003240VILLAGUAY (3240-0)                                00stellagonzalez43@hotmail.com                      F00000023254469F                                                  03                    1973-01-2700              N                                                                                                                                                      0000000001000000000000000000000000000000000000000000000000
080040032990100079038000000000000450876202509018620436320044PEDRO SANTIAGO                                    LEIVA                                             caseros                                           503   000000003150NOGOYA (3150-0)                                   00pedroleiva0111@gmail.com                          M00000043632004F                                                  03                    2001-11-0100              N                                                                                                                                                      0000000001000000000000000000000000000000000000000000000000
080040032990100047460000000000000273219202509018627335638226CAROLINA MARÍA CECILIA                            BRAVO                                             Tatuti                                            157   000000003206FEDERACIÓN (3206-0)                               00agencia01020federacion@gmail.com                  F00000033563822F                                                  0300        00        1988-07-0800              N                                                                                                                                                      0000000001000000000000000000000000000000000000000000000000
080040032990100005295000000000000450876202509018620453891608JEREMIAS                                          SIMIAN ALVAREZ                                    Chile                                             4739  000000003201VILLA ZORRAQUIN (3201-1)                          00jeresimian12@gmail.com                            M00000045389160F                                                  03                    2004-03-0400              N                                                                                                                                                      0000000001000000000000000000000000000000000000000000000000
080040032990100079367000000000000450876202509018620117729770EDUARDO RAÚL                                      CARDOZO                                           Ayacucho                                          1250  000000002820GUALEGUAYCHU (2820-0)                             00agencia1168@gmail.com                             M00000011772977F                                                  03O         O         1955-10-2300              N                                                                                                                                                      0000000001000000000000000000000000000000000000000000000000
080040032990100100918000000000000273219202509018627333702172JESICA                                            VILLALBA                                          AT VANDOR                                         418   000000003142BOVRIL (3142-1)                                   00jesydebo88@hotmail.com                            F00000033370217F                                                  03                    1988-03-1900              N                                                                                                                                                      0000000001000000000000000000000000000000000000000000000000
080040032990100052522000000000000273219202509018627240345450ANA MARIA                                         SANCHEZ                                           Gualeguay                                         33    000000002843GENERAL GALARZA (2843-0)                          00anaasanchez1243@gmail.com                         F00000024034545F                                                  03                    1974-10-2200              N                                                                                                                                                      0000000001000000000000000000000000000000000000000000000000
080040032990100101297000000000000450876202509018620284580452GASTON MIGUEL                                     GONZALEZ                                          CLAVARINO Y CORDOBA                               0     000000002820GUALEGUAYCHU (2820-0)                             00miguelgastong@gmail.com                           M00000028458045F                                                  03                    1980-10-2800              N                                                                                                                                                      0000000001000000000000000000000000000000000000000000000000
080040032990100003520000000000000273219202509018620344956481MARTÍN ALEJANDRO                                  RAPIDEZ TRILLO                                    Sourigues                                         1098  000000003100PARANA (3100-0)                                   00ramireztrillomartin@gmail.com                     M00000034495648F                                                  03                    1989-04-1800              N                                                                                                                                                      0000000001000000000000000000000000000000000000000000000000
080040032990100069031000000000000450876202509018623128964584ELSA                                              CAPURRO                                           Gobernador Carbo                                  3     000000002840GUALEGUAY (2840-0)                                00lilianacapu@hotmail.com                           F00000012896458F                                                  03                    1957-02-0200              N                                                                                                                                                      0000000001000000000000000000000000000000000000000000000000
080040032990100018000000000000000273219202509018620372929449DIEGO MIGUEL                                      GERARD                                            Olegario Andrade                                  875   000000000000SAN SALVADOR (3218-0)                             00logisticadgok@gmail.com                           M00000037292944F                                                  03                    1993-05-0800              N                                                                                                                                                      0000000001000000000000000000000000000000000000000000000000
080040032990100035780000000000006008333202509018627335638226CAROLINA MARÍA CECILIA                            BRAVO                                             Tatuti                                            157   000000003206FEDERACIÓN (3206-0)                               00agencia01020federacion@gmail.com                  F00000033563822F                                                  0300        00        1988-07-0800              N                                                                                                                                                      0000000001000000000000000000000000000000000000000000000000
080040032990100086192000000000045713815202509018620135751066CARLOS OSCAR                                      GONZALEZ                                          BOLIVIA                                           567   000000003200CONCORDIA (3200-0)                                00cachi36@hotmail.com                               M00000013575106F                                                  03                    1957-09-1300              N                                                                                                                                                      0000000001000000000000000000000000000000000000000000000000
080040032990100011478000000000000273219202509018627418684246KAREN SOLEDAD                                     LUNA                                              nogoya                                            4759  000000003201VILLA ZORRAQUIN (3201-1)                          00karenluna9905@gmail.com                           F00000041868424F                                                  03                    1999-05-0900              N                                                                                                                                                      0000000001000000000000000000000000000000000000000000000000
080040032990100098621000000000000450876202509018620084228592CARLOS                                            GIORGI                                            sanguinetti                                       10    000000003280COLON (3280-0)                                    00agenciagiorgi1210@yahoo.com.ar                    M00000008422859F                                                  03                    1948-02-0900              N                                                                                                                                                      0000000001000000000000000000000000000000000000000000000000
080040033000100025627000000000000602422202509018627347845111SOFIA                                             COLOMBO                                           alvear                                            98    000000003280COLON (3280-0)                                    00sofi_colombo10@hotmail.com                        F00000034784511F                                                  03                    1990-02-1500              N                                                                                                                                                      0000000001000000000000000000000000000000000000000000000000
080130013170100009073000000000000162954202509018620453891608JEREMIAS                                          SIMIAN ALVAREZ                                    Chile                                             4739  000000003201VILLA ZORRAQUIN (3201-1)                          00jeresimian12@gmail.com                            M00000045389160F                                                  03                    2004-03-0400              N                                                                                                                                                      0000000001000000000000000000000000000000000000000000000000
080130013170100012737000000000000162954202509018620297595637MIGUEL EDGARDO                                    BRITTES                                           Brow 1456                                         1     000000003190LA PAZ (3190-0)                                   00agenciasantarita1300@gmail.com                    M00000029759563F                                                  03                    1992-09-3000              N                                                                                                                                                      0000000001000000000000000000000000000000000000000000000000
