080040032910100059144000000000196449599202508018627355589957CAROLINA                                          ERPEN                                             9 de julio                                        672   000000003170BASAVILBASO (3170-0)                              08carolinaerpen@hotmail.com                         F00100035558995F                                                  03                    1990-04-2600                                                                                                                                                                     0000000001000000000000000000000000000000000000000000000000
080040032910100033773000000000000636852202508018627238361880GLADYS ROSANA                                     CANO                                              Barrio Yapeyú                                     89    000000002820GUALEGUAYCHU (2820-0)                             08canorosana.74g@gmail.com                          F00100023836188F                                                  03                    1974-06-1300                                                                                                                                                                     0000000001000000000000000000000000000000000000000000000000
080040032880100072453000000000000145121202508018627385439666MARIA LAURA                                       LIMA                                              Dominguez                                         1736  000000002820GUALEGUAYCHU (2820-0)                             08meri12len@gmail.com                               F00100038543966F                                                  03                    1994-12-3100                                                                                                                                                                     0000000001000000000000000000000000000000000000000000000000
080040032890100008478000000000000309623202508018620366194798CABRERA                                           OSCAR ANTONIO                                     Diamante                                          23    000000013191SAN GUSTAVO (3191-1)                              08Oscarcarla1000@gmail..com                         M00100036619479F                                                  03_____     La Pa     1992-04-0100                                                                                                                                                                     0000000001000000000000000000000000000000000000000000000000
080040032900100029017000000000010908501202508018620287586281JORGE                                             MELCHIOR                                          av libertad                                       225   000000023174ROSARIO DEL TALA (3174-2)                         08nalves@iafas.gov.ar                               M00100028758628F                                                  03                    1981-09-2400                                                                                                                                                                     0000000001000000000000000000000000000000000000000000000000
080040032910100018270000000000000324162202508018627456163748KALA                                              SCHONFELD                                         irigoyen                                          1276  000000003180FEDERAL (3180-0)                                  08kalaschonfeld2004@gmail.com                       F00100045616374F                                                  03                    2004-01-0900                                                                                                                                                                     0000000001000000000000000000000000000000000000000000000000
080040032880100073816000000000000145121202508018620163279062OSCAR                                             BRAJUS                                            Santa fe                                          644   000000032826URDINARRAIN (2826-3)                              08milagrosboullon@gmail.com                         M00100016327906F                                                  03                    1963-04-0700                                                                                                                                                                     0000000001000000000000000000000000000000000000000000000000
080040032880100050984000000000000145121202508018627316235129MARIA MILAGROS                                    BOULLON                                           Derqui                                            43    000000032826URDINARRAIN (2826-3)                              08miliboullon@hotmail.com                           F00100031623512F                                                  03                    1985-04-1300                                                                                                                                                                     0000000001000000000000000000000000000000000000000000000000
080040032890100097292000000000000294172202508018620287586281JORGE                                             MELCHIOR                                          av libertad                                       225   000000023174ROSARIO DEL TALA (3174-2)                         08nalves@iafas.gov.ar                               M00100028758628F                                                  03                    1981-09-2400                                                                                                                                                                     0000000001000000000000000000000000000000000000000000000000
080040032900100028890000000000000769906202508018620185168450JUAN OSCAR                                        PREMARIES                                         Savio Oeste                                       437   000000003240VILLAGUAY (3240-0)                                08agencia087villaguay@gmail.com                     M00100018516845F                                                  03                    1967-07-0800                                                                                                                                                                     0000000001000000000000000000000000000000000000000000000000
080040032900100056001000000000000769906202508018627336248669MELISA JUDITH                                     RODRÍGUEZ                                         Batalla del cerrito                               1209  000000003100PARANA (3100-0)                                   08agencia0314@gmail.com                             F00100033624866F                                                  03                    1988-07-2900                                                                                                                                                                     0000000001000000000000000000000000000000000000000000000000
080040032910100091703000000000000324162202508018620146046429ALDO DANIEL                                       SARMIENTO                                         Santos Vega                                       0     000000003100PARANA (3100-0)                                   08cainopaola@gmail.com                              M00100014604642F                                                  03                    1961-08-0600                                                                                                                                                                     0000000001000000000000000000000000000000000000000000000000
080040032910100023656000000000000324162202508018620075441461SANTIAGO                                          LAUMANN                                           san martin                                        1573  000000003100PARANA (3100-0)                                   08papilalo38@gmail.com                              M00100007544146F                                                  03                    1938-04-1800                                                                                                                                                                     0000000001000000000000000000000000000000000000000000000000
080040032910100022043000000000000324162202508018620084500381CLODOMIRO                                         RODRIGUEZ                                         Almafuerte                                        885   000000003100PARANA (3100-0)                                   08marcelorodriguezzanin123@gmail.com                M00100008450038F                                                  03                    1946-07-2800                                                                                                                                                                     0000000001000000000000000000000000000000000000000000000000
080040032880100002166000000000000519603202508018620307890659NICOLAS                                           MARIN                                             barrio vicoer                                     1098  000000002820GUALEGUAYCHU (2820-0)                             08nicolasramon2017@hotmail.com                      M00100030789065F                                                  034         19        1984-03-2300                                                                                                                                                                     0000000001000000000000000000000000000000000000000000000000
080040032880100068893000000000000145121202508018627178707960VIVIANA                                           OBANDO                                            urquiza                                           1367  000000003153VICTORIA (3153-0)                                 08agencia0090@GMAIL.COM                             F00100017870796F                                                  030         0         1967-04-0100                                                                                                                                                                     0000000001000000000000000000000000000000000000000000000000
080040032890100036003000000000000294172202508018620186193890JUAN ALBERTO                                      DOMINICI                                          Diamante                                          3561  000000003200CONCORDIA (3200-0)                                08juancito1967dominici@gmail.com                    M00100018619389F                                                  03                    1967-11-2200                                                                                                                                                                     0000000001000000000000000000000000000000000000000000000000
080040032890100055792000000000000294172202508018620253254948JORGE DANIEL                                      HUMBERT                                           ALCORTA                                           540   000000003100PARANA (3100-0)                                   08danielhumbert26@gmail.com                         M00100025325494F                                                  03                    1976-09-0600                                                                                                                                                                     0000000001000000000000000000000000000000000000000000000000
080040032900100061158000000000000769906202508018620242644019LAUREANO PABLO                                    MARKOWSKY                                         Coronel Piran                                     1252  000000003100PARANA (3100-0)                                   08laurepmarkowsky@gmail.com                         M00100024264401F                                                  03                    1975-01-3000                                                                                                                                                                     0000000001000000000000000000000000000000000000000000000000
080040032910100071974000000000000324162202508018623350289259CRISTIAN                                          LEIVA                                             San martin                                        752   000000003107SAN BENITO (3107-0)                               08cristian.j.l.leiva@gmail.com                      M00100035028925F                                                  03                    1990-02-0600                                                                                                                                                                     0000000001000000000000000000000000000000000000000000000000
080040032910100021122000000000000324162202508018623232849169EDUARDO GABRIEL                                   MUNILLA                                           Ejido                                             0     000000003280COLON (3280-0)                                    08munillagabriel@gmail.com                          M00100023284916F                                                  03                    1973-01-3100                                                                                                                                                                     0000000001000000000000000000000000000000000000000000000000
080040032910100079729000000000039347357202508018620229558243GUSTAVO ROBERTO                                   NIZ                                               Villaguay                                         1170  000000003100PARANA (3100-0)                                   08agencia.no.316@gmail.com                          M00100022955824F                                                  03Pb                  1973-01-2800                                                                                                                                                                     0000000001000000000000000000000000000000000000000000000000
080040032910100059385000000000000324162202508018627166122118FATIMA                                            ACUÑA                                             Juan Arzurduy                                     1600  000000003150NOGOYA (3150-0)                                   08agencia1318@gmail.com                             F00100016612211F                                                  03                    1963-06-1600                                                                                                                                                                     0000000001000000000000000000000000000000000000000000000000
080040032910100006837000000000000636852202508018627208831068GRISELDA                                          FERLING                                           sarmiento                                         781   000000003153VICTORIA (3153-0)                                 08agencia0090@gmail.com                             F00100020883106F                                                  030         0         1969-06-1200                                                                                                                                                                     0000000001000000000000000000000000000000000000000000000000
080040032910100017729000000000000636852202508018623202578489CARLOS MANUEL                                     PERALTA                                           natalio brondi                                    191   000000013111TABOSSI (3111-1)                                  08jorgeescobar63@yahoo.com.ar                       M00100020257848F                                                  03                    1968-06-3000                                                                                                                                                                     0000000001000000000000000000000000000000000000000000000000
080040032910100083398000000000000324162202508018623058857599OSCAR ANIBAL                                      NICOLINI CHORT                                    San Martin                                        533   000000023116CRESPO (3116-2)                                   08gualeguay47@hotmail.com                           M00100005885759F                                                  03                    1947-10-1400                                                                                                                                                                     0000000001000000000000000000000000000000000000000000000000
080040032910100027965000000000000324162202508018623176161949TORRES                                            TORRES                                            BULEVARMORENO                                     637   000000003100PARANA (3100-0)                                   08rosischamne@gmail.com                             M00100017616194F                                                  03                    1974-02-2300                                                                                                                                                                     0000000001000000000000000000000000000000000000000000000000
080040032910100001841000000000000324162202508018620149498584CAYETANO FRANCISCO                                SANTA CRUZ                                        Ramirez                                           2924  000000003100PARANA (3100-0)                                   08panchosantafull@gmail.com                         M00100014949858F                                                  03                    1962-03-2300                                                                                                                                                                     0000000001000000000000000000000000000000000000000000000000
080040032910100082246000000000000324162202508018620112009591JORGE ALBERTO                                     MEDRANO                                           teniente gimenez                                  3030  000000023100COLONIA AVELLANEDA (3100-2)                       08agenciaoficial770colonia1967@gmail.com            M00100011200959F                                                  03                    1954-09-2300                                                                                                                                                                     0000000001000000000000000000000000000000000000000000000000
080040032910100080984000000000000324162202508018627182157037MARIA SILVINA                                     BAIGORRIA                                         Artusi                                            633   000000013260CONCEPCION DEL URUGUAY (3260-1)                   08silvinamaria_11@hotmail.com.ar                    F00100018215703F                                                  03                    1966-10-1600                                                                                                                                                                     0000000001000000000000000000000000000000000000000000000000
080040032880100037850000000000000145121202508018623139400259JUAN DANIEL                                       RAVASIO                                           Guemes                                            115   000000003200CONCORDIA (3200-0)                                08ravasiojuandaniel8@gmail.com                      M00100013940025F                                                  03                    1960-01-3100                                                                                                                                                                     0000000001000000000000000000000000000000000000000000000000
080040032880100083273000000000006907390202508018623131987129HECTOR JULIO                                      KOEGLER                                           TALITA                                            1814  000000003200CONCORDIA (3200-0)                                08KOEGLERJULIO8142222@gmail.com                     M00100013198712F                                                  03                    1959-07-2000                                                                                                                                                                     0000000001000000000000000000000000000000000000000000000000
080040032880100113018000000000000519603202508018620110715022ANIMAL GILBERTO                                   MARTINEZ                                          Los jacarandaes                                   1385  000000003100PARANA (3100-0)                                   08caro_cuchi2207@hotmail.com                        M00100011071502F                                                  03                    2024-11-1100                                                                                                                                                                     0000000001000000000000000000000000000000000000000000000000
080040032880100023869000000000000145121202508018620333179262AMILCAR ANDRES                                    VALIERO                                           CENTENARIO                                        69    000000002840GUALEGUAY (2840-0)                                08amilcarvaliero@gmail.com                          M00100033317926F                                                  03                    1991-01-0600                                                                                                                                                                     0000000001000000000000000000000000000000000000000000000000
080040032880100126773000000000000145121202508018627458477391CANDELA                                           PACCOT                                            Emilio gouchon                                    1301  000000003280COLON (3280-0)                                    08paccotcandela5@gmail.com                          F00100045847739F                                                  03                    2004-06-2700                                                                                                                                                                     0000000001000000000000000000000000000000000000000000000000
080040032880100119779000000000000145121202508018620183407571JOSÉ LUIS                                         HABRANDT                                          República Árabe de Siria                          1773  000000003200CONCORDIA (3200-0)                                08agencia0040@gmail.com                             M00100018340757F                                                  03                    1997-07-2400                                                                                                                                                                     0000000001000000000000000000000000000000000000000000000000
080040032880100010564000000000017468144202508018627204851242EMA EDITH                                         DEZOUSA ESQUIVEL                                  Nogoyá                                            423   000000003100PARANA (3100-0)                                   08edithdezousa68@hotmail.com                        F00100020485124F                                                  03-         -         1968-09-1500                                                                                                                                                                     0000000001000000000000000000000000000000000000000000000000
080040032880100044322000000000000145121202508018627426024069CELINA AILEN                                      MEZQUITA                                          guarumba                                          840   000000003228CHAJARI (3228-0)                                  08celinaailenmezquita@gmail.com                     F00100042602406F                                                  03                    2000-05-2200                                                                                                                                                                     0000000001000000000000000000000000000000000000000000000000
080040032890100009357000000000000309623202508028627225585127FERMINA LEONILDA                                  DIAZ                                              Belgrano                                          0     000000003187SAN JOSÉ DE FELICIANO (3187-0)                    08agencia0068@gmail.com                             F00100022558512F                                                  030         0         1972-04-0600                                                                                                                                                                     0000000001000000000000000000000000000000000000000000000000
080040032890100001069000000000000294172202508018620339223611DIEGO                                             FIRPO                                             Cura alvarez                                      253   000000003100PARANA (3100-0)                                   08diegof.99@hotmail.com                             M00100033922361F                                                  03                    1988-06-3000                                                                                                                                                                     0000000001000000000000000000000000000000000000000000000000
080040032890100037376000000000000294172202508018620168586915PEDRO OSCAR DARIO                                 GOMEZ                                             primer distrito                                   0     000000002840GUALEGUAY (2840-0)                                08agencia0455@gmail.com                             M00100016858691F                                                  03                    1964-07-1000                                                                                                                                                                     0000000001000000000000000000000000000000000000000000000000
080040032890100025133000000000047037698202508028620086089581ANIBAL ANTONIO                                    MANGEON                                           NECOCHEA                                          1140  000000003240VILLAGUAY (3240-0)                                08MANGEONANIBAL@GMAIL.COM                           M00100008608958F                                                  03                    1951-07-0200                                                                                                                                                                     0000000001000000000000000000000000000000000000000000000000
080040032890100066487000000000000309623202508018620221448058MARIO RUBEN                                       OROSCO                                            lopez jordan                                      1     000000003144SAUCE DE LUNA (3144-0)                            08patribast@gmail.com                               M00100022144805F                                                  031         1         1971-07-0900                                                                                                                                                                     0000000001000000000000000000000000000000000000000000000000
080040032890100012369000000000000294172202508018620115849248EDUARDO GUILLERMO                                 ITURRIA                                           Santiago del Estero                               458   000000003100PARANA (3100-0)                                   08agenciaoficial252@gmail.com                       M00100011584924F                                                  03                    1956-02-0100                                                                                                                                                                     0000000001000000000000000000000000000000000000000000000000
080040032890100035795000000000000294172202508018627348867968MARIANELA                                         CALGARO                                           Av 9 de Julio                                     245   000000033229VILLA DEL ROSARIO (3229-3)                        08calgaromarianela@gmail.com                        F00100034886796F                                                  03                    1990-08-0100                                                                                                                                                                     0000000001000000000000000000000000000000000000000000000000
080130013120100007776000000000000283653202508028623370809429FRANCISCO NICOLÁS                                 TAPÓN                                             25 de junio                                       619   000000003100PARANA (3100-0)                                   08frantapon@gmail.com                               M00100037080942F                                                  031         1         1992-11-1300                                                                                                                                                                     0000000001000000000000000000000000000000000000000000000000
080040032900100057200000000000010908501202508028620363186018MAURO                                             ROBLES                                            Perigan                                           2383  000000002820GUALEGUAYCHU (2820-0)                             08roblesmauro07@gmail.com                           M00100036318601F                                                  03                    1992-07-0700                                                                                                                                                                     0000000001000000000000000000000000000000000000000000000000
080040032900100096300000000000000769906202508018627261735224LORENA DEARMAS                                    DEARMAS                                           Conscripto Giorgi s                               20    000000012823VILLA PARANACITO (2823-1)                         08lorenadearmas522@gmai.com                         F00100026173522F                                                  03                    1977-08-2000                                                                                                                                                                     0000000001000000000000000000000000000000000000000000000000
080040032910100025379000000000000636852202508018620086487013RUBÉN OSCAR                                       VIRGILIO                                          Av. Tuyango                                       240   000000003129PIEDRAS BLANCAS (3129-0)                          08virgiliopato8@gmail.com                           M00100008648701F                                                  03                    1951-10-0700                                                                                                                                                                     0000000001000000000000000000000000000000000000000000000000
080040032910100030485000000000000324162202508018627202900750CELIA ARGENTINA                                   DOTTA                                             DR MATORRA                                        217   000000002840GUALEGUAY (2840-0)                                08agencia433@live.com                               F00100020290075F                                                  03                    1968-04-1700                                                                                                                                                                     0000000001000000000000000000000000000000000000000000000000
080040032910100078852000000000000324162202508018627406923377ANA ESPERANZA                                     DELLA MEA                                         Dorrego                                           719   000000003153VICTORIA (3153-0)                                 08anitadellamea97@gmail.com                         F00100040692337F                                                  03          Victo     1997-12-0900                                                                                                                                                                     0000000001000000000000000000000000000000000000000000000000
080040032910100085236000000000000324162202508018623265466044VALERIA YANINA                                    VALIENTE                                          Sagastume                                         124   000000013260CONCEPCION DEL URUGUAY (3260-1)                   08valientevaleria170@gmail.com                      F00100026546604F                                                  03                    1978-02-0800                                                                                                                                                                     0000000001000000000000000000000000000000000000000000000000
080040032910100040995000000000000324162202508028627398382264DELFINA                                           VERGARA                                           COLON                                             680   000000003150NOGOYA (3150-0)                                   08delvergaraamu@hotmail.com                         F00100039838226F                                                  03                    1996-10-1100                                                                                                                                                                     0000000001000000000000000000000000000000000000000000000000
080040032910100042642000000000000636852202508018620247110810OSCAR MARCELO                                     SILVA                                             Pio XII                                           2050  000000003228CHAJARI (3228-0)                                  08silvaconstrucciones123@gmail.com                  M00100024711081F                                                  03                    1975-07-1500                                                                                                                                                                     0000000001000000000000000000000000000000000000000000000000
080040032910100059487000000000039347357202508018620127569917LUIS EDUARDO                                      GIORELLO                                          MISIONES                                          351   000000003100PARANA (3100-0)                                   08agenciaoficial252@gmail.com                       M00100012756991F                                                  03                    1957-04-1400                                                                                                                                                                     0000000001000000000000000000000000000000000000000000000000
080040032910100027814000000000000636852202508018623057869879BRAIN                                             GOSU                                              isabel la catolica                                1200  000000003240VILLAGUAY (3240-0)                                08edgardomatiasL81@gmail.com                        M00100005786987F                                                  0300        00        1930-10-3000                                                                                                                                                                     0000000001000000000000000000000000000000000000000000000000
080040032910100062382000000000039023196202508018620282572037RUBEN DARIO                                       VIOLA                                             Santa fe                                          717   000000003107SAN BENITO (3107-0)                               08ruben_34_2015@hotmail.com                         M00100028257203F                                                  03                    1980-06-2800                                                                                                                                                                     0000000001000000000000000000000000000000000000000000000000
080040032910100079443000000000000636852202508018620138832458OMAR                                              PIEROTTI                                          Anacleto medina236                                1     000000023100COLONIA AVELLANEDA (3100-2)                       08omarapierotti@gmail.com                           M00100013883245F                                                  031         1         1960-03-0700                                                                                                                                                                     0000000001000000000000000000000000000000000000000000000000
080040032910100084543000000000000324162202508028627148304306ALICIA NOEMI                                      MAROTENE                                          Pasillo 2267 y Caputto                            2267  000000003100PARANA (3100-0)                                   08agencia830oficial@gmail.com                       F00100014830430F                                                  03                    1961-11-2500                                                                                                                                                                     0000000001000000000000000000000000000000000000000000000000
080040032910100053561000000000000636852202508018620312774632NESTOR FERNÁNDO                                   RODRIGUEZ                                         Tristan Frutos                                    567   000000003150NOGOYA (3150-0)                                   08nestorfrod@hotmail.com                            M00100031277463F                                                  03                    1985-02-1300                                                                                                                                                                     0000000001000000000000000000000000000000000000000000000000
080040032910100065668000000000039023196202508018620131831626OMAR JOSE                                         SCHENBERGER                                       VILLAGUAY                                         181   000000113101ALDEA VALLE MARIA (3101-11)                       08vivianarohr@gmail.com                             M00100013183162F                                                  03                    1957-11-0200                                                                                                                                                                     0000000001000000000000000000000000000000000000000000000000
080040032910100087309000000000000324162202508028620253253380JUAN CARLOS                                       PEZOA                                             Indios bohanes                                    53    000000003100PARANA (3100-0)                                   08saty_lp@hotmail.com                               M00100025325338F                                                  03                    1976-10-1000                                                                                                                                                                     0000000001000000000000000000000000000000000000000000000000
080040032880100095254000000000000145121202508038627220153962ANDREA                                            BENITEZ PETRONA                                   Concejal veiga                                    1554  000000003200CONCORDIA (3200-0)                                08agenciaoficial249@gmail.com                       F00100022015396F                                                  03                    1971-03-2800                                                                                                                                                                     0000000001000000000000000000000000000000000000000000000000
080040032880100099438000000000000145121202508028627287173496MARIA EUGENIA                                     BRESSAN                                           Fitz gerald                                       785   000000003150NOGOYA (3150-0)                                   08meuge349@gmail.com                                F00100028717349F                                                  03                    1981-09-1100                                                                                                                                                                     0000000001000000000000000000000000000000000000000000000000
080040032880100078706000000000000145121202508028627119460021SUSANA MARINA                                     MINAGLIA                                          3 de febrero                                      1150  000000003150NOGOYA (3150-0)                                   08marchesejuancruz74@gmal.com                       F00100011946002F                                                  03                    1955-12-0400                                                                                                                                                                     0000000001000000000000000000000000000000000000000000000000
080040032880100007365000000000000145121202508028620102291213ALBERTO HECTOR                                    ABADIE                                            Toscanini                                         127   000000003100PARANA (3100-0)                                   08abadiealberto@hotmail.com                         M00100010229121F                                                  03                    1952-05-2400                                                                                                                                                                     0000000001000000000000000000000000000000000000000000000000
080040032880100086482000000000007426994202508028627390289990MARIA                                             BANEGA                                            Brown                                             1145  000000003200CONCORDIA (3200-0)                                08banegamariasol@gmail.com                          F00100039028999F                                                  03                    1995-12-2000                                                                                                                                                                     0000000001000000000000000000000000000000000000000000000000
080040032880100096812000000000000145121202508028620449818106LAUTARO SEBASTIAN                                 CASTRO                                            ejido                                             0     000000003190LA PAZ (3190-0)                                   08laza07_00@hotmail.com                             M00100044981810F                                                  03                    2003-06-3000                                                                                                                                                                     0000000001000000000000000000000000000000000000000000000000
080040032880100067271000000000000145121202508028620324790501ENZO IVAN                                         RAMOS                                             Deletang                                          539   000000003240VILLAGUAY (3240-0)                                08ramosenzoivan07@gmail.com                         M00100032479050F                                                  030         0         1986-06-1000                                                                                                                                                                     0000000001000000000000000000000000000000000000000000000000
080040032880100063914000000000000145121202508028620224498323MAXIMO GABRIEL                                    CHAPARRO                                          Av. San Martin                                    12    000000003164GENERAL RAMIREZ (3164-0)                          08agencia.800.a@gmeil.com                           M00100022449832F                                                  03                    1971-11-2000                                                                                                                                                                     0000000001000000000000000000000000000000000000000000000000
080040032880100091054000000000000519603202508028620165313322DANIEL ALEJANDRO                                  MORENO                                            Fraternidad                                       359   000000003100PARANA (3100-0)                                   08agencia0566@gmail.com                             M00100016531332F                                                  03                    1963-12-2300                                                                                                                                                                     0000000001000000000000000000000000000000000000000000000000
080040032890100074226000000000000309623202508028620169926663MARIO                                             KUTTEL                                            00000                                             0     000000003240VILLAGUAY (3240-0)                                08mak-959@hotmail.com                               M00100016992666F                                                  0300        00        1964-07-3100                                                                                                                                                                     0000000001000000000000000000000000000000000000000000000000
080040032890100094889000000000000309623202508028627234938695SILVIA CARINA                                     FOCHEZATTO                                        gendarmeria nacional                              1083  000000003200CONCORDIA (3200-0)                                08carinafochezatto6@gmail.com                       F00100023493869F                                                  03                    1974-02-0800                                                                                                                                                                     0000000001000000000000000000000000000000000000000000000000
080040032890100096809000000000000309623202508028620375625904ZAMBONI                                           LAUTARO                                           Brandsen                                          940   000000003100PARANA (3100-0)                                   08lautaronahuelzamboni@gmail.com                    M00100037562590F                                                  03                    2013-09-0400                                                                                                                                                                     0000000001000000000000000000000000000000000000000000000000
080040032890100022486000000000000294172202508028627361017361MAYKA                                             OLIVERA                                           Santa elena                                       188   000000002821PUEBLO GENERAL BELGRANO (2821-0)                  08maykuolmivera15@gmail.co                          F00100036101736F                                                  03                    1991-08-1800                                                                                                                                                                     0000000001000000000000000000000000000000000000000000000000
080130013120100010935000000000000283653202508028623222676479JUAN                                              BERNS                                             25 de mayo                                        665   000000023116CRESPO (3116-2)                                   08johnnyberns@hotmail.com                           M00100022267647F                                                  03                    1972-03-2400                                                                                                                                                                     0000000001000000000000000000000000000000000000000000000000
080040032900100078623000000000000774878202508028620361030851JULIAN                                            BELLATTI                                          O´higgins                                         60    000000003100PARANA (3100-0)                                   08jfbellatti@hotmail.com.ar                         M00100036103085F                                                  03                    1991-06-2400                                                                                                                                                                     0000000001000000000000000000000000000000000000000000000000
080040032900100061924000000000010908501202508028627141582904ADELINA ROSA                                      GOMEZ                                             Pna III mza 17 Aguilar Torres                     12    000000003100PARANA (3100-0)                                   08agencia922cecilia@gmail.com                       F00100014158290F                                                  03                    1960-12-1800                                                                                                                                                                     0000000001000000000000000000000000000000000000000000000000
080040032900100100941000000000000774878202508028623200999959JORGE FABIAN MARCELO                              QUINODOZ                                          Sebastian Vazquez                                 353   000000003100PARANA (3100-0)                                   08cainopaola@gmail.com                              M00100020099995F                                                  03                    1968-05-0800                                                                                                                                                                     0000000001000000000000000000000000000000000000000000000000
080040032900100102774000000000000774878202508028620131838590OSCAR ORANDO                                      CONDE                                             San martin                                        121   000000003105DIAMANTE (3105-0)                                 08oscarorlando@yahoo.com                            M00100013183859F                                                  03                    1961-01-0900                                                                                                                                                                     0000000001000000000000000000000000000000000000000000000000
080040032900100082106000000000011683381202508028620058209091MARIO                                             ROUGIER                                           Ombu                                              1858  000000013265VILLA ELISA (3265-1)                              08belkiscigrand@yahoo.com.ar                        M00100005820909F                                                  03                    1941-08-0900                                                                                                                                                                     0000000001000000000000000000000000000000000000000000000000
080040032900100065943000000000010908501202508028620163901340CLAUDIO                                           BOVIER                                            34 DEL OESTE NORTE                                259   000000013260CONCEPCION DEL URUGUAY (3260-1)                   08claciay@hotmail.com                               M00100016390134F                                                  03                    1963-11-0500                                                                                                                                                                     0000000001000000000000000000000000000000000000000000000000
080040032900100045677000000000010908501202508028620183232747HUMBERTO FABIAN                                   RODRIGUEZ                                         castelli                                          343   000000003200CONCORDIA (3200-0)                                08agencia290concordia@gmail.com                     M00100018323274F                                                  031                   1967-02-1800                                                                                                                                                                     0000000001000000000000000000000000000000000000000000000000
080040032900100036399000000000011678407202508028620306611950MARCOS JOSE                                       BENITEZ                                           Avenida sarmiento                                 154   000000003218SAN SALVADOR (3218-0)                             08agencia762@gmail.com                              M00100030661195F                                                  03                    1984-10-2000                                                                                                                                                                     0000000001000000000000000000000000000000000000000000000000
080040032900100098993000000000000774878202508028627177756747GLORIA MABEL                                      ANTIVERO                                          Democracia s/n                                    48    000000012823VILLA PARANACITO (2823-1)                         08pelusa.39@hotmail..com                            F00100017775674F                                                  03                    1966-09-0900                                                                                                                                                                     0000000001000000000000000000000000000000000000000000000000
080040032900100099652000000000000774878202508028620184912520JOSE FRANSISCO                                    PAREDES                                           Mariano moreno                                    460   000000002840GUALEGUAY (2840-0)                                08pauli.q09@gmail.com                               M00100018491252F                                                  030         0         1967-08-1700                                                                                                                                                                     0000000001000000000000000000000000000000000000000000000000
080040032900100023797000000000000769906202508028627334654619YANINA ESTELA                                     KLOSTER                                           Vuelta de obligado                                140   000000003218SAN SALVADOR (3218-0)                             08yaninakloster7@gmail.com                          F00100033465461F                                                  03                    1988-02-1500                                                                                                                                                                     0000000001000000000000000000000000000000000000000000000000
080040032900100086178000000000000769906202508028620141626842PABLO JAVIER                                      VAZQUEZ                                           Belgrano                                          1712  000000003200CONCORDIA (3200-0)                                08suc5max@gmail.com                                 M00100014162684F                                                  03                    1961-04-0300                                                                                                                                                                     0000000001000000000000000000000000000000000000000000000000
080040032900100065631000000000010908501202508028620163901340CLAUDIO                                           BOVIER                                            34 DEL OESTE NORTE                                259   000000013260CONCEPCION DEL URUGUAY (3260-1)                   08claciay@hotmail.com                               M00100016390134F                                                  03                    1963-11-0500                                                                                                                                                                     0000000001000000000000000000000000000000000000000000000000
080040032900100085116000000000190855213202508028627362195670DENISE ALEXIANA                                   REINICK                                           Pasteur                                           485   000000003100PARANA (3100-0)                                   08denireinick@hotmail.com                           F00100036219567F                                                  03                    1992-01-1200                                                                                                                                                                     0000000001000000000000000000000000000000000000000000000000
080040032900100024028000000000010908501202508028627334654619YANINA ESTELA                                     KLOSTER                                           Vuelta de obligado                                140   000000003218SAN SALVADOR (3218-0)                             08yaninakloster7@gmail.com                          F00100033465461F                                                  03                    1988-02-1500                                                                                                                                                                     0000000001000000000000000000000000000000000000000000000000
080040032910100077287000000000039023196202508028623174596719JOSE LUIS                                         COLLAZO                                           G Mendez                                          1972  000000002820GUALEGUAYCHU (2820-0)                             08radiadoresjose65@gmail.com                        M00100017459671F                                                  03                    1965-10-0700                                                                                                                                                                     0000000001000000000000000000000000000000000000000000000000
080040032910100097185000000000000324162202508028623324112804JOANA                                             FABRE                                             jordana                                           415   000000013260CONCEPCION DEL URUGUAY (3260-1)                   08agencia1287@gmail.com                             F00100032411280F                                                  03                    1986-11-1300                                                                                                                                                                     0000000001000000000000000000000000000000000000000000000000
080040032910100047602000000000000324162202508028620243277532ARIEL                                             GAIGA                                             0                                                 0     000000043201ESTANCIA GRANDE (3201-4)                          08lilianacornalo0@gmail.com                         M00100024327753F                                                  03                    1974-11-2300                                                                                                                                                                     0000000001000000000000000000000000000000000000000000000000
080040032910100038458000000000000324162202508028627120579555OLGA INES                                         POMA                                              Santiago del estero                               458   000000003100PARANA (3100-0)                                   08olgainespoma@gmail.com                            F00100012057955F                                                  03                    1958-03-1300                                                                                                                                                                     0000000001000000000000000000000000000000000000000000000000
080040032910100005663000000000000636852202508028620312482364ADRIAN JAVIER                                     MULLER                                            Primo Paoloni                                     522   000000003218SAN SALVADOR (3218-0)                             08stehlegisela380@gmail.com                         M00100031248236F                                                  03                    1984-12-2100                                                                                                                                                                     0000000001000000000000000000000000000000000000000000000000
080040032910100099804000000000000636852202508028623161736589LUIS ALBERTO                                      BASUALDO                                          el resero                                         2315  000000003100PARANA (3100-0)                                   08agencia0638.anibal@gmail.com                      M00100016173658F                                                  03                    1962-11-0900                                                                                                                                                                     0000000001000000000000000000000000000000000000000000000000
080040032910100099128000000000000324162202508028623321420664CAROLINA LUCRECIA                                 REYNOSO                                           Bartoloni                                         1281  000000003153VICTORIA (3153-0)                                 08carolinafacu2018@gmail.com                        F00100032142066F                                                  03                    1986-03-1600                                                                                                                                                                     0000000001000000000000000000000000000000000000000000000000
080040032910100085761000000000000636852202508028627243997823ALEJANDRA ELIZABET                                MARTINEZ                                          1 de mayo                                         2091  000000003100PARANA (3100-0)                                   08alegennari84@gmail.com.ar                         F00100024399782F                                                  03                    1975-03-0100                                                                                                                                                                     0000000001000000000000000000000000000000000000000000000000
080040032910100088127000000000000324162202508028620231909207ANDRES CEFERINO                                   LOPEZ                                             concordiA                                         613   000000003100PARANA (3100-0)                                   08andresceferinolopez@gmail.com                     M00100023190920F                                                  03                    1973-09-1100                                                                                                                                                                     0000000001000000000000000000000000000000000000000000000000
080040032910100084218000000000000636852202508028620136318250RAMON                                             GOMEZ                                             Caputto y Miguel david                            0     000000003100PARANA (3100-0)                                   08paralelepipedo17@gmail.cpm                        M00100013631825F                                                  03                    1960-10-0100                                                                                                                                                                     0000000001000000000000000000000000000000000000000000000000
080040032910100050244000000000000636852202508028627392617170LEONOR                                            GONZALEZ                                          Cordoba                                           0     000000003187SAN JOSÉ DE FELICIANO (3187-0)                    08agenciaoficialn507@gmail.com                      F00100039261717F                                                  03                    1995-07-2800                                                                                                                                                                     0000000001000000000000000000000000000000000000000000000000
080040032910100041390000000000000324162202508028620259024995ANGEL RAMON                                       MATTIAUDA                                         SARMIENTO                                         2538  000000013260CONCEPCION DEL URUGUAY (3260-1)                   08ageencia901@gmail.com                             M00100025902499F                                                  03                    1977-10-1900                                                                                                                                                                     0000000001000000000000000000000000000000000000000000000000
080040032910100071463000000000000324162202508028620323883751GUSTAVO GABRIEL                                   BARCO                                             caseros                                           422   000000003150NOGOYA (3150-0)                                   08gabitobarco@hotmail.com.ar                        M00100032388375F                                                  03                    1986-07-0200                                                                                                                                                                     0000000001000000000000000000000000000000000000000000000000
080040032910100028938000000000000324162202508048620178974948JUAN ALBERTO                                      MENDIZABAL                                        Dr.Echazarreta                                    201   000000002843GENERAL GALARZA (2843-0)                          08mendizabaljuan210@gmail.om                        M00100017897494F                                                  03                    1967-06-3000                                                                                                                                                                     0000000001000000000000000000000000000000000000000000000000
080040032910100008766000000000000324162202508028620080065710JORGE MARIO                                       PRADA                                             alem y passo                                      0     000000003153VICTORIA (3153-0)                                 08leonelm17800@gmail.com                            M00100008006571F                                                  0300        00        1950-02-1900                                                                                                                                                                     0000000001000000000000000000000000000000000000000000000000
080040032910100044058000000000000324162202508028620176007150MARCELO                                           GERVASONI                                         salta                                             318   000000023174ROSARIO DEL TALA (3174-2)                         08sandrogomes4@hotmail.com                          M00100017600715F                                                  03                    1966-08-2600                                                                                                                                                                     0000000001000000000000000000000000000000000000000000000000
080040032910100034493000000000000636852202508028627112009677RAMONA                                            BUSTOS                                            Toribio ortiz                                     1951  000000003100PARANA (3100-0)                                   08agencia262@gmail.com                              F00100011200967F                                                  03                    1954-08-2300                                                                                                                                                                     0000000001000000000000000000000000000000000000000000000000
080040032910100034026000000000000636852202508028620183131746JUAN DOMINGO                                      KUSMAN                                            Rene Favaloro                                     866   000000003216GENERAL CAMPOS (3216-0)                           08agencia1041generalcampos@gmail.com                M00100018313174F                                                  03                    1967-03-1200                                                                                                                                                                     0000000001000000000000000000000000000000000000000000000000
080040032910100078636000000000000636852202508028620205525956ALEJO                                             ARANDA                                            Sara de Ecleston                                  1137  000000003100PARANA (3100-0)                                   08mgreynafe@gmail.com                               M00100020552595F                                                  03                    1968-10-1400                                                                                                                                                                     0000000001000000000000000000000000000000000000000000000000
080040032910100097380000000000039023196202508028620401647032EMILIANO                                          TRONCOSO                                          laurencena                                        174   000000002840GUALEGUAY (2840-0)                                08emilianotrr10@gmail.com                           M00100040164703F                                                  03                    1997-07-2200                                                                                                                                                                     0000000001000000000000000000000000000000000000000000000000
080040032910100031577000000000196449599202508028620119428883RAUL                                              GOTTE                                             DON JOSE                                          217   000000003123ALDEA SANTA MARÍA (3123-0)                        08agencia15.maccarrone@gmail.com                    M00100011942888F                                                  03                    1958-07-2500                                                                                                                                                                     0000000001000000000000000000000000000000000000000000000000
080040032910100057022000000000000324162202508028627047028529CAROLINA                                          CUADRA                                            gualeguaychu                                      184   000000003100PARANA (3100-0)                                   08agencia0005am@gmail.com                           F00100004702852F                                                  03                    0043-08-1700                                                                                                                                                                     0000000001000000000000000000000000000000000000000000000000
080040032910100025922000000000000324162202508028620136908953ROBERTO                                           CASTAÑO                                           curtiembre                                        111   000000003113PUEBLO GENERAL SAN MARTÍN (CURTIEMBRE) (3113-0)   08belkislandra@hotmail.com                          M00100013690895F                                                  03                    1960-05-0100                                                                                                                                                                     0000000001000000000000000000000000000000000000000000000000
080040032910100087664000000000000324162202508028620375622344FRANCO                                            FARINO                                            Sarobe                                            877   000000003100PARANA (3100-0)                                   08agencia0544farino@gmail.com                       M00100037562234F                                                  03                    1993-07-0700                                                                                                                                                                     0000000001000000000000000000000000000000000000000000000000
080040032910100030324000000000000324162202508028620167310401PEDRO                                             KOLESNIK                                          Lago del Desierto                                 273   000000009301El Chaltén                                        04agencia0562@gmail.com                             M00100016731040F                                                  03                    1964-02-1000                                                                                                                                                                     0000000001000000000000000000000000000000000000000000000000
080040032910100086589000000000000636852202508028627220267445VILMA EDITH                                       LESCANO                                           AUDOBON                                           1617  000000003100PARANA (3100-0)                                   08vilmal.lescano.d.23@gmail.com                     F00100022026744F                                                  03-         -         1972-01-2300                                                                                                                                                                     0000000001000000000000000000000000000000000000000000000000
080040032920100038431000000000000184025202508048620219979534FABIO EDGARDO                                     SCHONFELD                                         Intendente Francisco Veron                        555   000000003180FEDERAL (3180-0)                                  08agencia869@gmail.com                              M00100021997953F                                                  03                    1971-09-1500                                                                                                                                                                     0000000001000000000000000000000000000000000000000000000000
080040032920100095374000000000000184025202508048623122322769FELIPE RAMON                                      ISNARDO                                           ANTARTIDA ARGENTINA                               786   000000003192SANTA ELENA (3192-0)                              08agencia0491@gmail.com                             M00100012232276F                                                  03                    1956-08-2300                                                                                                                                                                     0000000001000000000000000000000000000000000000000000000000
080040032920100004460000000000000183814202508048627201176048KARINA MARIEL                                     ARGUELLES                                         URUGUAY                                           419   000000003100PARANA (3100-0)                                   08kmarguelles68@gmail.com                           F00100020117604F                                                  03                    1968-03-1800                                                                                                                                                                     0000000001000000000000000000000000000000000000000000000000
080040032920100012198000000000000183814202508048620228375536MAURICIO HECTOR                                   BIANCHI                                           ITUZAINGO                                         1578  000000002820GUALEGUAYCHU (2820-0)                             08mhbianchi@hotmail.com                             M00100022837553F                                                  03                    1972-07-2300                                                                                                                                                                     0000000001000000000000000000000000000000000000000000000000
080040032920100005000000000000000184025202508048627203220702SUSANA DALILA                                     PERALTA                                           Presidente Perón                                  160   000000002854LARROQUE (2854-0)                                 08susana-dalila@hotmail.com                         F00100020322070F                                                  03                    1968-12-1900                                                                                                                                                                     0000000001000000000000000000000000000000000000000000000000
080040032920100027391000000000000183814202508048620366194798CABRERA                                           OSCAR ANTONIO                                     Diamante                                          23    000000013191SAN GUSTAVO (3191-1)                              08Oscarcarla1000@gmail..com                         M00100036619479F                                                  03_____     La Pa     1992-04-0100                                                                                                                                                                     0000000001000000000000000000000000000000000000000000000000
080040032920100011445000000000000183814202508048620287586281JORGE                                             MELCHIOR                                          av libertad                                       225   000000023174ROSARIO DEL TALA (3174-2)                         08nalves@iafas.gov.ar                               M00100028758628F                                                  03                    1981-09-2400                                                                                                                                                                     0000000001000000000000000000000000000000000000000000000000
080040032920100001276000000000036097977202508048620446244044SANTIAGO                                          GSBROVICH                                         uruguay                                           259   000000003100PARANA (3100-0)                                   08santiago.gabrovich@gmail.com                      M00100044624404F                                                  034         F         2003-01-0900                                                                                                                                                                     0000000001000000000000000000000000000000000000000000000000
080040032920100131525000000000006298919202508048623324112804JOANA                                             FABRE                                             jordana                                           415   000000013260CONCEPCION DEL URUGUAY (3260-1)                   08agencia1287@gmail.com                             F00100032411280F                                                  03                    1986-11-1300                                                                                                                                                                     0000000001000000000000000000000000000000000000000000000000
080040032880100100372000000000000519603202508048620400455997XAVIER                                            ZAMBONI                                           Coronel Brandsen                                  940   000000003100PARANA (3100-0)                                   08xavizamboni@gmail.com                             M00100040045599F                                                  030         0         1997-01-1000                                                                                                                                                                     0000000001000000000000000000000000000000000000000000000000
080040032880100066973000000000000519603202508048623245271719GERMAN                                            DEYMONNAZ                                         Los Bretes                                        877   000000013265VILLA ELISA (3265-1)                              08gerdeymonnaz@gmail.com                            M00100024527171F                                                  03                    1975-05-1700                                                                                                                                                                     0000000001000000000000000000000000000000000000000000000000
080040032880100126707000000000000519603202508048620436335971FEDERICO                                          CARDOZO                                           salvarredy                                        2730  000000003206FEDERACIÓN (3206-0)                               08federicocardozo@gmail.com                         M00100043633597F                                                  03                    2002-10-0200                                                                                                                                                                     0000000001000000000000000000000000000000000000000000000000
080040032880100035480000000000000519603202508048627117729414CECILIA INES                                      NUÑEZ                                             Churruarin                                        1068  000000002820GUALEGUAYCHU (2820-0)                             08carlanfotniam@hotmail.com                         F00100011772941F                                                  03                    1955-01-1500                                                                                                                                                                     0000000001000000000000000000000000000000000000000000000000
080040032880100068400000000000007052510202508048623219126999MARCELO JOSÉ                                      GUTIÉRREZ                                         1000                                              555   000000003100PARANA (3100-0)                                   08facundofabrega9@gmail.com                         M00100021912699F                                                  084         E         1972-06-0400                                                                                                                                                                     0000000001000000000000000000000000000000000000000000000000
080040032890100071633000000000000309623202508048627271159612CAROLINA                                          ANDRIAN                                           Presidente Perón                                  918   000000003133MARIA GRANDE (3133-0)                             08carolinaandrian@yahoo.com.ar                      F00100027115961F                                                  03                    1979-05-1300                                                                                                                                                                     0000000001000000000000000000000000000000000000000000000000
080040032900100113179000000000000769906202508048620348052072MATIAS                                            SATTO                                             ecuador                                           255   000000003200CONCORDIA (3200-0)                                08agencia0484oficial@gmail.com                      M00100034805207F                                                  03                    1989-11-2900                                                                                                                                                                     0000000001000000000000000000000000000000000000000000000000
080040032900100053386000000000000774878202508048627271159612CAROLINA                                          ANDRIAN                                           Presidente Perón                                  918   000000003133MARIA GRANDE (3133-0)                             08carolinaandrian@yahoo.com.ar                      F00100027115961F                                                  03                    1979-05-1300                                                                                                                                                                     0000000001000000000000000000000000000000000000000000000000
080040032900100026115000000000000774878202508048620408387494ENZO FERNAN                                       SUAREZ                                            QUINQUELA MARTIN                                  1355  000000002846IBICUY (2846-0)                                   08suarezenzo37@gmail.com                            M00100040838749F                                                  03                    1998-06-2400                                                                                                                                                                     0000000001000000000000000000000000000000000000000000000000
080040032900100055415000000000000774878202508048627234970920SILVANA MARIELA                                   BEHERAN                                           epele                                             187   000000002840GUALEGUAY (2840-0)                                08samiiitaaa@gmail.com                              F00100023497092F                                                  03                    1973-10-1900                                                                                                                                                                     0000000001000000000000000000000000000000000000000000000000
080040032910100048138000000000000324162202508048627124684671NORMA MABEL                                       IBARRA                                            maestro sardi                                     585   000000002840GUALEGUAY (2840-0)                                08agencia51gualeguay@gmail.com                      F00100012468467F                                                  030                   1958-07-1600                                                                                                                                                                     0000000001000000000000000000000000000000000000000000000000
080040032910100003116000000000000636852202508048620314396252ARIEL GUSTAVO                                     ARGUELLO                                          Cochrane                                          626   000000003100PARANA (3100-0)                                   08arguello.ariel@gmail.com                          M00100031439625F                                                  03                    1985-02-2000                                                                                                                                                                     0000000001000000000000000000000000000000000000000000000000
080040032910100073580000000000000324162202508048620444404095CEFERINO NICOLAS                                  LACUADRA                                          almte.brown                                       574   000000013142BOVRIL (3142-1)                                   08nicolacuadra.3.6@gmail.com                        M00100044440409F                                                  03                    2002-09-0900                                                                                                                                                                     0000000001000000000000000000000000000000000000000000000000
080040032910100061460000000000000636852202508048620287171219GUSTAVO                                           SALGARO                                           gualeguay                                         231   000000003150NOGOYA (3150-0)                                   08agencia368vg@gmail.com                            M00100028717121F                                                  03                    1981-05-1400                                                                                                                                                                     0000000001000000000000000000000000000000000000000000000000
080040032910100070990000000000000324162202508048620221495307HUGO DANIEL                                       OSUNA                                             Despertar del Obrero                              607   000000013260CONCEPCION DEL URUGUAY (3260-1)                   08hugodanielosuna@gmail.com                         M00100022149530F                                                  030         0         1971-08-2600                                                                                                                                                                     0000000001000000000000000000000000000000000000000000000000
080040032910100102784000000000000324162202508048627242184810ANA MARÍA                                         SEVERO                                            P. Del Castillo                                   1371  000000003200CONCORDIA (3200-0)                                08fernandocaballero216@gmail.com                    F00100024218481F                                                  03                    2024-03-2200                                                                                                                                                                     0000000001000000000000000000000000000000000000000000000000
080040032910100013924000000000000324162202508048627263893625MIRNA LORENA                                      VALDEZ                                            Avenida de los Rusos                              786   000000003218SAN SALVADOR (3218-0)                             08lorenavaldez919@gmail.com                         F00100026389362F                                                  03                    1978-01-2500                                                                                                                                                                     0000000001000000000000000000000000000000000000000000000000
080040032910100060504000000000000324162202508048620362193940LUIS MARÌA                                        SALAS                                             Uruguay                                           711   000000023109VIALE (3109-2)                                    08danielkerps787@gmail.com                          M00100036219394F                                                  03                    1991-07-2100                                                                                                                                                                     0000000001000000000000000000000000000000000000000000000000
080040032910100093317000000000000324162202508048627185558539LUCIA MAGDALENA                                   GIMENEZ                                           santiago del estero y az0ucenas                   0     000000033203BENITO LEGERÉN (3203-3)                           08soleagencia132@gmail.com                          F00100018555853F                                                  03                    1967-12-2500                                                                                                                                                                     0000000001000000000000000000000000000000000000000000000000
080040032910100080983000000000000324162202508048623310169234MARIA CECILIA                                     BARZOLA                                           Ameghino 647                                      647   000000003100PARANA (3100-0)                                   08mlbarzola53@gmail.com                             F00100031016923F                                                  03                    1984-09-0900                                                                                                                                                                     0000000001000000000000000000000000000000000000000000000000
080040032910100014103000000000000324162202508048627141043043ROSA MABEL                                        MASETTO                                           ramirez                                           380   000000003200CONCORDIA (3200-0)                                08rositamasetto@gmail.com                           F00100014104304F                                                  03                    1960-08-2900                                                                                                                                                                     0000000001000000000000000000000000000000000000000000000000
080040032910100033405000000000000324162202508048627325052053IRMA                                              ACUÑA                                             salta                                             2236  000000003228CHAJARI (3228-0)                                  08irmaacuna878@hotmail.com                          F00100032505205F                                                  03                    1986-10-2100                                                                                                                                                                     0000000001000000000000000000000000000000000000000000000000
080040032920100078906000000000006115105202508048620371120522MAXIMILIANO                                       GARCIA                                            rivadavia                                         1276  000000003200CONCORDIA (3200-0)                                08maxi_651@hotmail.com                              M00100037112052F                                                  03                    1993-04-1900                                                                                                                                                                     0000000001000000000000000000000000000000000000000000000000
080040032920100112884000000000006115105202508048620215145736DAVID                                             MARCHASINI                                        doello jurado                                     1663  000000002820GUALEGUAYCHU (2820-0)                             08davidmarchasini12@gmail.com                       M00100021514573F                                                  030         0         1970-08-1400                                                                                                                                                                     0000000001000000000000000000000000000000000000000000000000
080040032920100017324000000000000184025202508048620267171638PATRICIO AMILCAR                                  PIOLI                                             Peyret                                            19    000000003280COLON (3280-0)                                    08agencia0559@gmail.com                             M00100026717163F                                                  03                    1978-09-1200                                                                                                                                                                     0000000001000000000000000000000000000000000000000000000000
080040032920100048398000000000006298919202508048627221495026NANCY ALEJANDRA                                   GOROSITO                                          San Martin                                        281   000000013260CONCEPCION DEL URUGUAY (3260-1)                   08alejandragorosito050@gmail.com                    F00100022149502F                                                  03                    1971-08-0700                                                                                                                                                                     0000000001000000000000000000000000000000000000000000000000
